:020000040000FA
:10000000100D00207D030000850300008703000021
:10001000890300008B0300008D0300000000000036
:100020000000000000000000000000008F0300003E
:1000300091030000000000009303000095030000FE
:1000400097030000990300009B0300009D0300003C
:100050009F030000A1030000A3030000A50300000C
:10006000A7030000A9030000AB030000AD030000DC
:10007000AF030000B1030000B3030000B5030000AC
:10008000B7030000B9030000BB030000BD0300007C
:10009000BF030000C1030000C3030000C50300004C
:1000A000C7030000C9030000CB030000CD0300001C
:1000B000CF030000D1030000D3030000D5030000EC
:1000C000D7030000D9030000DB030000DD030000BC
:1000D000DF030000E1030000E3030000E50300008C
:1000E000E7030000E903000000000000EB0300004C
:1000F000ED030000EF030000F1030000F303000034
:10010000F5030000F7030000F9030000FB03000003
:100110000000000000000000FD030000FF030000DD
:1001200001040000030400000504000007040000AF
:10013000090400000B0400000D0400000F0400007F
:1001400000000000000000000000000000000000AF
:10015000110400001304000015040000170400003F
:10016000000000000000000000000000000000008F
:10017000000000000000000000000000000000007F
:10018000000000000000000000000000000000006F
:10019000000000000000000000000000000000005F
:1001A000000000000000000000000000000000004F
:1001B000190400001B0400001D0400001F040000BF
:1001C000210400002304000025040000270400008F
:1001D000290400002B0400002D0400002F0400005F
:1001E000310400003304000035040000000000006A
:1001F0000000000037040000390400003B04000048
:100200003D0400003F04000000000000000000006A
:1002100041040000430400004504000047040000BE
:10022000490400004B0400004D0400004F0400008E
:10023000510400005304000055040000570400005E
:10024000590400005B0400005D0400005F0400002E
:1002500061040000630400006504000067040000FE
:10026000690400006B0400006D04000000F002F857
:1002700000F05CF80AA090E8000C82448344AAF1E4
:100280000107DA4501D100F051F8AFF2090EBAE8E2
:100290000F0013F0010F18BFFB1A43F001031847BA
:1002A0007C5100009C5100000A444FF0000C10F8F3
:1002B000013B13F0070408BF10F8014B1D1108BFE4
:1002C00010F8015B641E05D010F8016B641E01F884
:1002D000016BF9D113F0080F1EBF10F8014BAD1CD4
:1002E0000C1B09D16D1E58BF01F801CBFAD505E0F2
:1002F00014F8016B01F8016B6D1EF9D59142D6D34C
:10030000704700000023002400250026103A28BF73
:1003100078C1FBD8520728BF30C148BF0B60704777
:100320001FB504F079FC1FBD10B510BD00F0C6F874
:100330001146FFF7F5FF03F017F800F0E4F803B4F7
:10034000FFF7F2FF03BC00F0E7F80000EFF31080C6
:1003500072B67047EFF310807047EFF3108062B60B
:10036000704730BF704780F311887047EFF31180FA
:10037000704700000138FDD1704700003F488047BA
:100380003F480047FEE7FEE7FEE7FEE7FEE7FEE741
:10039000FEE7FEE7FEE7FEE7FEE7FEE7FEE7FEE735
:1003A000FEE7FEE7FEE7FEE7FEE7FEE7FEE7FEE725
:1003B000FEE7FEE7FEE7FEE7FEE7FEE7FEE7FEE715
:1003C000FEE7FEE7FEE7FEE7FEE7FEE7FEE7FEE705
:1003D000FEE7FEE7FEE7FEE7FEE7FEE7FEE7FEE7F5
:1003E000FEE7FEE7FEE7FEE7FEE7FEE7FEE7FEE7E5
:1003F000FEE7FEE7FEE7FEE7FEE7FEE7FEE7FEE7D5
:10040000FEE7FEE7FEE7FEE7FEE7FEE7FEE7FEE7C4
:10041000FEE7FEE7FEE7FEE7FEE7FEE7FEE7FEE7B4
:10042000FEE7FEE7FEE7FEE7FEE7FEE7FEE7FEE7A4
:10043000FEE7FEE7FEE7FEE7FEE7FEE7FEE7FEE794
:10044000FEE7FEE7FEE7FEE7FEE7FEE7FEE7FEE784
:10045000FEE7FEE7FEE7FEE7FEE7FEE7FEE7FEE774
:10046000FEE7FEE7FEE7FEE7FEE7FEE7FEE7000049
:1004700004480549034A054B70470000E90C000099
:100480006D020000100B0020100D0020100B00204A
:1004900070477047704710B500F008F8006810BD4D
:1004A00010B5044600F002F8046010BD0048704723
:1004B000B00A002000487047B00A00207546FFF7D8
:1004C000F9FFAE4605006946534620F00700854611
:1004D00018B020B5FFF7CCFFBDE820404FF0000674
:1004E0004FF000074FF000084FF0000B21F007011C
:1004F000AC46ACE8C009ACE8C009ACE8C009ACE85F
:10050000C0098D46704710B50446AFF30080204601
:10051000BDE81040FFF713BF01491820ABBEFEE74E
:1005200026000200704702F001031BB1D0F800342E
:100530000B4302E0D0F800348B43C0F8003402F0E3
:1005400002031BB1D0F820340B4302E0D0F8203472
:100550008B43C0F820347047C0F81C147047D0F8A3
:1005600010240A43C0F81024704770B504460D46A5
:10057000204600F0A7FE06462946304600F022FA43
:10058000304600F039F970BD024611B1D2F81804B6
:100590007047D2F81404FBE702F001031BB1D0F856
:1005A00008340B4302E0D0F808348B43C0F8083419
:1005B00002F002031BB1D0F804340B4302E0D0F880
:1005C00004348B43C0F8043402F004031BB1D0F8A8
:1005D0000C340B4302E0D0F80C348B43C0F80C34DD
:1005E00002F4803323B1D0F8383543F0010303E03F
:1005F000D0F8383523F00103C0F838357047F0B52E
:1006000002F001051DB1D0F800550D4302E0D0F80D
:1006100000558D43C0F8005502F002051DB1D0F819
:1006200004550D4302E0D0F804558D43C0F804553D
:1006300002F004051DB1D0F808550D4302E0D0F8D2
:1006400008558D43C0F8085502F008051DB1D0F8D3
:1006500018550D4302E0D0F818558D43C0F81855D1
:1006600002F010051DB1D0F83C550D4302E0D0F862
:100670003C558D43C0F83C55002416E00125A540AB
:100680000D4085B1D0F8C45F67000326BE40B54376
:10069000C0F8C45FD0F8C45F6700C2F34116BE4023
:1006A0003543C0F8C45F651CECB2082CE6DB03F0F0
:1006B00001051DB1D0F80C550D4302E0D0F80C55E2
:1006C0008D43C0F80C5503F002051DB1D0F810554C
:1006D0000D4302E0D0F810558D43C0F8105503F0DB
:1006E00004051DB1D0F814550D4302E0D0F814559F
:1006F0008D43C0F8145503F008051DB1D0F81C5502
:100700000D4302E0D0F81C558D43C0F81C5503F48E
:1007100000751DB1D0F844550D4302E0D0F84455A2
:100720008D43C0F8445503F440751DB1D0F84055D1
:100730000D4302E0D0F840558D43C0F840551BB939
:10074000D0F828550D4302E0D0F828558D43C0F865
:100750002855F0BD10B50146C1F307400F4BDB6EC5
:1007600001248440234033B1012303EB40030C4CAC
:1007700054F8230003E04300094C54F82300C1F36C
:100780000722D0F82C350F249440A34301F00F0426
:1007900094402343C0F82C3510BD000000E00F400A
:1007A000A44D00000246002000EB81001058704765
:1007B00030B504460D460823012229462046FFF79E
:1007C0001EFF012229462046FFF7ADFE30BD30B5A1
:1007D00004460D46022229462046FFF7A4FE0823C0
:1007E000012229462046FFF70AFF30BD002303EB14
:1007F0008103C25070470000042806D119490968D6
:1008000041F48031174A11602BE0052806D11549C3
:10081000096841F40031134A116022E0062806D12C
:100820001049096841F480210E4A116019E00F282F
:1008300008D14FF0E021096941F002014FF0E022B8
:1008400011610EE010280CD3A0F1100101F01F027D
:1008500001219140A0F110025209034B53F82220CC
:100860001160704724ED00E0F04E000070B50121EA
:10087000134800F086FB04462146114800F06CFB4B
:10088000102C0CD106E00E4800F001FBC5B2284642
:1008900001F0C6FD0A4800F016FB0028F3D1402CF9
:1008A0000CD106E0064800F0F2FAC5B2284601F085
:1008B000B7FD034800F007FB0028F3D170BD00002E
:1008C00000D0004070B50121134800F05AFB0446E7
:1008D0002146114800F040FB102C0CD106E00E48D8
:1008E00000F0D5FAC5B2284601F0D6FD0A4800F05E
:1008F000EAFA0028F3D1402C0CD106E0064800F0BB
:10090000C6FAC5B2284601F0C7FD034800F0DBFA7D
:100910000028F3D170BD00000010014010B5012186
:10092000154800F02EFB04462146134800F014FB46
:10093000102C0ED108E0104800F0A0FA0F49087002
:100940000846007803F00EFA0B4800F0BCFA0028C5
:10095000F1D1402C0ED108E0074800F08FFA07498A
:1009600008700846007803F0FDF9034800F0ABFA80
:100970000028F1D110BD00000030014030010020FE
:1009800010B5FFF7EAFC08B1012010BD0020FCE71C
:1009900010B50A4683080A4C54F8233019688307B7
:1009A000DC0EFF23A34099438307DB0E02FA03F317
:1009B00019438308024C54F82330196010BD00001D
:1009C000544E000030B502460B4C24680B4DAC422F
:1009D0000ED0094C2368002005E053F82040074D55
:1009E00045F82040401C9B28F7D3044C024D2C6056
:1009F000024C44F8221030BD08ED00E00004002055
:100A000070B53C48036E016F01F0004010B101F079
:100A1000700001E003F03000202811D003DC38B171
:100A2000102815D10AE030280CD0702810D10CE025
:100A30003148C3F3841650F826200BE02F4A09E012
:100A40002F4A07E047F2305204E04FF4004201E041
:100A5000002070BD00BF01F0004010B101F4006043
:100A600028B101F00040E0B903F40060C8B925489E
:100A700005682048D0F8644104F01F00401CC4F30E
:100A80000426761C10FB06F04000B2FBF0F2C5F322
:100A900009005043C5F38926564300EB962243F4E0
:100AA000800303F4800018B301F00040D8B101F0D6
:100AB000804090B101F0004010B101F4006028B115
:100AC00001F0004048B903F4006030B95600C1F3AA
:100AD0008650401CB6FBF0F20AE0C1F3C550401C42
:100AE000B2FBF0F204E0C3F3C350401CB2FBF0F2DF
:100AF0001046AEE700E00F40404F00000024F40035
:100B000000093D0060E10F402DE9F04106464948EB
:100B1000056E046F45F4006525F4800544F4006417
:100B20000566046705F0010010B306F00100F8B98E
:100B300066F0010005403F48056604F0004038B10A
:100B400004F0700030280AD004F07000702806D03D
:100B500004F0004040B905F03000302804D14FF4D3
:100B60008050FFF707FC03E04FF40020FFF702FC82
:100B700025F4FE6506F4FE6005432F4804402E4927
:100B8000A13106EA0100044306F0080044EAC0046B
:100B90002848056604671020FFF7ECFB25F4005594
:100BA00006F40050054324F4005406F400500443B6
:100BB00040202049886504F0004018B108460467C9
:100BC000056602E01B48056604671C480540C143F2
:100BD00006EA0100054324F0FC5406F0FC500443EF
:100BE00006F0804040B145F4800524F480041449A7
:100BF00006EA0100044301E024F0804406F40060AA
:100C000080B94FF4004706E00A48006D00F040004C
:100C100000B102E07F1E002FF6D100BF25F4006571
:100C200024F400640348056604671020FFF7A2FB64
:100C3000BDE8F08100E00F408FFFFF7FFEFF3FF82F
:100C40000000404010B50121C0F30722094B1A44AF
:100C500002F0704242F00072C0F30723054C2344B7
:100C6000C3F3130342EA4312C3B242EA83021160A0
:100C700010BD000000E60F400146C1F307200B4AFB
:100C8000104400F0704040F00070C1F30722074BA1
:100C90001A44C2F3130240EA4210CAB240EA820088
:100CA000006808B1012070470020FCE700E30F4016
:100CB0000146C1F307200B4A104400F0704040F099
:100CC0000070C1F30722074B1A44C2F3130240EA33
:100CD0004210CAB240EA8200006808B101207047A1
:100CE0000020FCE700EA0F401B49096841F470014D
:100CF000194A116019491A4A11671A4911661A49A5
:100D000011661A491167002000E0401CB0F57A7F97
:100D1000FBD31749124A116616491167002000E0FB
:100D2000401CB0F57A7FFBD313490D4A116600BF12
:100D30000B49096D01F040014029F9D10F49084ADA
:100D400011664FF0C0711167002000E0401C42F2B4
:100D500010718842FAD3704788ED00E010288007B0
:100D600000E00F40D13A8E07422D9E0100288001FD
:100D7000420D9E0100088001420DDE014205DE01A8
:100D800010B54FF480710E4800F057F80D48006818
:100D900050B1002210210C48FFF728FD002009491E
:100DA000086001F0D1FB09E0102211460648FFF768
:100DB0001DFD01200349086001F0C6FB10BD0000C5
:100DC000000003408801002000500040C26840F24B
:100DD00001139A43C2600A0E0260114A1268114B55
:100DE0001A40114B9A4211D1CAB201F4702342EA5F
:100DF000131242F40072426001F47002C1F307233F
:100E000043EA122242F40072826008E0CAB242F45D
:100E100000724260C1F3072242F4007282607047A0
:100E200000E00F400000FF7000000A10C26840F2AE
:100E300001130B401A43C2607047416270478269D8
:100E40000A43826170472DE9F04105460E4614467B
:100E50003146284600F05CFA074621463846FFF73F
:100E6000B1FD3846FFF7C8FCBDE8F081CBB203B155
:100E7000826201F47F4303B1C2627047014600BF42
:100E8000886900F010000028FAD108687047014610
:100E9000886900F0100008B9086870474FF0FF300B
:100EA000FBE700BF826902F02002002AFAD101604C
:100EB00070470246906900F0200010B911600120CF
:100EC00070470020FCE701468869012222EA1010E1
:100ED0007047C0F8C81F7047F0B504460E46154667
:100EE0001F46204600F01EF8B6EB051F05D2206B0A
:100EF00040F0200020636D0803E0206B20F020000C
:100F00002063F000B0FBF5F0401C430898096062D4
:100F100003F03F00A062E7620020A061204600F0DD
:100F200011F8F0BD00BF816901F008010029FAD174
:100F3000C16A21F01001C162016B40F2013291439C
:100F400001637047C16A41F01001C162016B40F258
:100F5000013211430163704741647047826B0A4359
:100F60008263704770B504460D46204600F0FCF9D8
:100F7000064629463046FFF725FD3046FFF73CFC84
:100F800070BD024609B1106C7047D06BFCE70000E1
:100F900070B504460D4616460E4951F82400FFF779
:100FA0006BFE00B970BD0C4850F824000B49086076
:100FB000084951F82400FFF745FE60232A463146D0
:100FC00006480068FFF788FF04480068FFF7BAFF8B
:100FD00000BFE7E73C52000030520000280100202B
:100FE0002DE9F04107460C46154698464FB10026BC
:100FF00004E0A15D0948FFF75CFF761CAE42F8DB18
:1010000009E0002604E0A15D0548FFF752FF761CC9
:10101000AE42F8DB00BFBDE8F081000000D0004028
:10102000001001400FB408B503A800900099029881
:1010300000F006F80020009001B05DF814FB0000FD
:101040002DE9F34F85B0064612E1002400E0641C50
:10105000305D252802D0305D0028F8D12146304689
:1010600000F016F9264430782528EDD1761C0025AD
:101070004FF0200B00BF16F8011B382932D014DCCA
:1010800033292AD008DC25296FD0302922D03129F4
:1010900021D032296AD11FE034291FD035291ED032
:1010A00036291DD03729F5D11BE0692935D008DC58
:1010B000392918D0582972D0632922D06429E9D15E
:1010C0002AE070296CD073293CD0752958D0782932
:1010D000E0D163E000BF00BF00BF00BF00BF00BFA2
:1010E00000BF00BF00BF16F8010C302801D105B9C0
:1010F000834605EB8500450016F8010C30380544A1
:10110000B9E70698006804900698001D0690012132
:1011100004A800F0BDF8AAE000BF0698006804909B
:101120000698001D06904FF000080498002805DA84
:101130000498404204904FF0010901E04FF000098B
:101140000A2739E0069850F804AB0690002400E026
:10115000641C1AF804000028FAD12146504600F019
:1011600097F8A5420BD92D1B05E076E07AE0012126
:1011700043A000F08DF8281EA5F10105F7D176E017
:101180000698006804900698001D06904FF000082D
:101190000A274FF000090FE001E001E000BF00BFA7
:1011A0000698006804900698001D06904FF000080D
:1011B00010274FF0000900BF012401E07C436D1EA1
:1011C00004FB07F00499884205D804FB07F0B0FB44
:1011D000F7F0A042F2D0B9F1000F00D06D1EB9F1C6
:1011E000000F0AD0BBF1300F07D12D22404608F185
:1011F00001080DF800204FF00009012D0BD9102D2A
:1012000009D26D1E05E0404608F101080DF800B056
:101210006D1E002DF7D1B9F1000F05D02D224046EB
:1012200008F101080DF8002010E00498B0FBF4F07C
:10123000B0FBF7F107FB1100124909680A5C404650
:1012400008F101080DF80020B4FBF7F4002CECD1F4
:101250004146684600F01CF809E0701E012100F0CC
:1012600017F804E0052108A000F012F800BF00BF45
:10127000307800287FF4E9AE07B0BDE8F08F0000B9
:10128000200000002C5200004552524F5200000036
:1012900070B505460E4600240DE0285D0A2804D1ED
:1012A0000D2107480068FFF7FCFD295D0448006830
:1012B000FFF7F7FD641CB442EFD3204670BD000079
:1012C0002801002030B502460C4B18240C48006859
:1012D0000C4D28400C4DA84201D10C4B00BF002101
:1012E00008E053F83100904203D103EBC10040689D
:1012F00030BD491CA142F4D30020F9E7244C000082
:1013000000E00F400000FF7000000A10E44C0000F5
:10131000F0B503460C460F4D0C260F4800680F4FE2
:1013200038400F4FB84201D10E4D082600210DE084
:1013300055F83100984208D105EBC1004268B4F578
:101340007F4F00D1521C1046F0BD491CB142EFD373
:101350000020F9E70C51000000E00F400000FF7092
:1013600000000A106C51000030B502460C4B0824F6
:101370000C4800680C4D28400C4DA84201D10C4B84
:1013800000BF002108E053F83100904203D103EB85
:10139000C100406830BD491CA142F4D30020F9E7E8
:1013A000AC51000000E00F400000FF7000000A1088
:1013B000EC51000003B401984100009850EAC120AC
:1013C00018BF04204A0D18BF40F0010040F2FF7220
:1013D000B2EB515F08BF40F00200012808BF0520B2
:1013E00002B070470000000070B59B482DED020B65
:1013F0002DED068B079D25F00044A04218DC974890
:10140000844202DC0AD1069840B19DED060BBDEC8A
:10141000068B02B0BDE8704000F01ABE002DCCBFB4
:101420009FED8F0B9FED900BBDEC068B02B070BD56
:101430008F48A04215DD8F48A042D8BF4FF0FF343F
:1014400058DD9DED060B51EC100BFFF7B3FF0428A0
:1014500008BF00F019FE9DED060BBDEC068B02B037
:1014600070BD9DED060B51EC100B01F061F8CDE95C
:10147000060181489FED828BA0423CDD8248A0425C
:101480001FDD00249FED82AB9DED060B53EC1A2B64
:1014900051EC100B02F0FAFD9DED060B41EC190B1F
:1014A00053EC1A2B51EC100B03F0C0F853EC182B33
:1014B00003F0C8FA53EC192B02F09CFECDE90601AB
:1014C00049E09DED060B012453EC182B51EC100B59
:1014D00002F0DCFD9DED060B41EC190B53EC182BD3
:1014E00051EC100B03F0AEFA53EC192B02F082FE14
:1014F000CDE906012FE06848A0421FDD02249FEDE0
:10150000689B9DED060B53EC192B51EC100B03F06F
:101510008DF853EC182B02F0B9FD9DED060B41EC54
:10152000180B53EC192B51EC100B03F08BFA53EC06
:10153000182B02F05FFECDE906010CE09DED060BD5
:10154000032453EC102B9FED580B51EC100B02F0C1
:1015500051FECDE906019DED060B53EC102B51EC2D
:10156000100B03F063F841EC180B53EC182B03F04D
:101570005DF841EC190B4E480621B0EE490AF0EE39
:10158000690A784400F040FB53EC182B51EC100B27
:1015900003F04CF841EC180B4648B0EE490AF0EE67
:1015A000690A0521784400F02FFB53EC192B51EC0C
:1015B000100B03F03BF841EC100B51EC180B53EC03
:1015C000102B002C0EDA02F061FD9DED061B53EC92
:1015D000112B03F02BF89DED061B53EC112B03F0A0
:1015E00059F935E002F052FD9DED061B53EC112B2D
:1015F00003F01CF841EC100B2F48784400EBC400BA
:1016000090ED001B51EC100B53EC112B03F01AFA68
:101610009DED061B53EC112B03F014FA41EC100B5B
:101620002648784400EBC40090ED001B51EC100BF1
:1016300053EC112B03F02EF941EC100B002DA2BF3F
:10164000BDEC068B02B070BD51EC100B02F012FD28
:1016500041EC100B01E70000000010440000F07F97
:10166000182D4454FB21F93F182D4454FB21F9BF98
:101670000000DC3F0000203E0000F33F00000000BF
:10168000000000000000F03F0000E63F0000000006
:101690000000000000000040008003400000000047
:1016A000000000000000F83F000000000000F0BF54
:1016B0002A3D0000E03C00006A3C0000223C0000A3
:1016C0002DED020B019820F0004001909DED000BE4
:1016D00002B0704700B52DED048BB0EE409AF0EEED
:1016E000609A83B051EC190B03F0E0F841EC180B51
:1016F00018EE100A18EE901A8DED008B002818BF16
:101700000120084320F00040C0F17F6000F1E0407C
:10171000C00F14D019EE101A19EE900A8DED009B2F
:10172000002918BF0121084320F00040C0F17F606C
:1017300000F1E040C00F04BF0120FEF7B1FEB0EEA3
:10174000480A03B0F0EE680ABDEC048B00BD00004F
:1017500010B51D499FED1A1B2DED020B84B00598A5
:1017600020F000408842DCBF01209DED040B21DD0C
:101770001649884209D1049840B94FF00100FEF79C
:101780008FFE00F071FC06B010BD05DB9DED040B73
:1017900000F05EFC06B010BD68469DED040B00F045
:1017A00017F800F001000121A1EB40009DED021BA4
:1017B0009DED000B00F0A4FA06B010BD0000000083
:1017C0000000000000000000FB21E93F0000F07F66
:1017D0002DE9F14F04462DED020B2DED088B8AB05B
:1017E0009FEDE70B80ED020B139EE74826F00045C6
:1017F00085420ADC9DED120B002084ED000B0AB03F
:10180000BDEC088B03B0BDE8F08FE0489FEDE0AB86
:101810009FEDE1BBA84247DDE14F9FEDE39B9FEDCC
:10182000E48B9DED120B53EC1A2B51EC100B002E98
:101830001CDD03F007F941EC100BBD4208D053EC5E
:101840001B2B51EC100B03F0FDF8C4E900010BE079
:1018500053EC192B51EC100B03F0F4F853EC182B4C
:1018600003F0F0F8C4E900010120C8E702F00EFC23
:1018700041EC100BBD4208D053EC1B2B51EC100B6C
:1018800002F004FCC4E900010BE053EC192B51EC0D
:10189000100B02F0FBFB53EC182B02F0F7FBC4E932
:1018A00000014FF0FF30AAE7C348A84279DB9DED65
:1018B000120B51EC100B00F03BFE41EC180B9FEDAE
:1018C000C00B53EC102B02F0B1FE9FEDBF1B53EC8D
:1018D000112B02F0DBFB02F0E5FD074602F03FFEB4
:1018E00041EC190B53EC1A2B02F0A0FE53EC182B11
:1018F00002F0D0FF41EC180B53EC1B2B51EC190BF1
:1019000002F094FEDFF8C8A241EC100B4FEA155824
:101910000125FA4453EC102B51EC180B03F092F80C
:10192000032DC4E900013DD0C1F30A5005EB451178
:10193000A8EB00001139814234DA0AEB051BB0EE46
:1019400048AA9BED000BF0EE68AA53EC102B51EC6B
:10195000190B02F06BFE41EC1B0B51EC1A0B53EC14
:101960001B2B03F06FF841EC180B51EC1A0B53ECE6
:10197000182B03F067F853EC1B2B03F063F89BED77
:10198000020B41EC1A0B53EC102B51EC190B02F02B
:101990004DFE53EC1A2B03F055F841EC100B6D1C67
:1019A000B8E70EE0002EA8BF3846BFF628AF94ED8A
:1019B000000B51EC100B02F05DFBC4E90001784212
:1019C0001DE7C6F3130040F4801EC6F30A50A0F2D0
:1019D000F530471100F01F05C5F12000DDF848B0D3
:1019E00008900020069007900520EC467949002DCC
:1019F00007EB0002794408BF51F8221009D051F8D2
:101A0000223001EB8201AB404A68089922FA01F1C9
:101A10001943A1FB0E26A1FB0B131A449A4234BFB3
:101A20000123002303EB06080CEB8003D3E901A696
:101A30000E448E4234BF0121002192448A4411B1E8
:101A4000924502D903E0924501D2012100E0002134
:101A5000C3E901A641444CF82010011EA0F1010089
:101A6000C4DC029800F10050850F0298DDE903679D
:101A70008000DDF8148002F072FD41EC1A0B304654
:101A800002F084FD9FED541B53EC112B02F0CEFDB0
:101A900041EC1B0B384602F079FD9FED511B53ECD6
:101AA000112B02F0C3FD41EC180B404602F06EFD15
:101AB0009FED4D1B53EC112B02F0B8FD41EC190BBF
:101AC00051EC180B53EC192B02F0E0FA53EC1B2BE2
:101AD00002F0DCFA53EC1A2B02F0D8FACDE9080137
:101AE000002008909DED080B53EC1A2B51EC100BC5
:101AF00002F0A8FF53EC1B2B02F0A4FF53EC182BB1
:101B000002F0A0FF53EC192B02F0C4FE9FED381B2E
:101B100053EC112B02F08AFD9FED370B41EC180BB3
:101B200053EC102B9DED080B51EC100B02F07EFDD9
:101B300053EC182B02F0AAFA9FED310B41EC180B75
:101B400053EC102B9DED080B51EC100B02F06EFDC9
:101B500053EC182B02F09AFA41EC100B139810F08A
:101B6000004F06D06D4251EC100B02F083FA41ECAD
:101B7000100B284684ED000B41E600000000000039
:101B80000000000000000000FB21E93F7CD902407A
:101B900000004054FB21F93F3163621A61B4D03D2B
:101BA000FB21F93F000000000000601A61B4D03D45
:101BB0007370032E8A19A33BFB21394100000000FA
:101BC00083C8C96D305FE43F000000000000E03FC3
:101BD000CA39000018390000000000000000103E63
:101BE000000000000000103C000000000000103A5F
:101BF000182D4454FB21F93D3326A611460B113C08
:101C000000000054FB21F93D70B504462DED028B18
:101C10004D1E00EBC500B0EE408AF0EE608A90EDFC
:101C2000000B35F0060017D053EC182B51EC100BBD
:101C300002F0FCFC41EC100B6D1E04EBC50090EDB6
:101C4000001B51EC100B53EC112B02F01FFA41EC6E
:101C5000100B35F00600E7D1022D36D0042D1CD034
:101C6000062D1CBFBDEC028B70BD53EC182B51EC44
:101C7000100B02F0DBFC94ED0A1B53EC112B02F06D
:101C800005FA53EC182B02F0D1FC94ED081B53EC31
:101C9000112B02F0FBF941EC100B53EC182B51EC1B
:101CA000100B02F0C3FC94ED061B53EC112B02F059
:101CB000EDF953EC182B02F0B9FC94ED040B53EC46
:101CC000102B02F0E3F941EC100B53EC182B51EC04
:101CD000100B02F0ABFC94ED021B53EC112B02F045
:101CE000D5F953EC182B02F0A1FC94ED001B53EC3A
:101CF000112B02F0CBF9BDEC028B41EC100B70BD47
:101D0000F1B506462DED040BBD482DED0C8B8AB0C8
:101D1000B0EE418AF0EE618A179D25F000449FEDF8
:101D2000BABB9FEDBBCB844208DA9DED160B51EC9C
:101D3000100B02F0B7FB002800F0E980B64FA74275
:101D400031DC002D0DDA9DED160B51EC100B02F07D
:101D500091F9CDE9160151EC180B02F08BF941EC29
:101D6000180B9FEDAF0B53EC102B9DED160B51ECA8
:101D7000100B02F08FFD53EC182B9FEDAB0BCDE950
:101D8000040151EC100B02F05DFE41EC100B53EC22
:101D9000102B9DED040B51EC100B02F077F99FED29
:101DA000A48BCDE916019DED160B53EC102B51ECD5
:101DB000100B02F03BFCCDE904019DED040B53EC4C
:101DC000102B51EC100B02F031FC41EC190B9A482E
:101DD0000621B0EE490AF0EE690A7844FFF714FFD5
:101DE0009648B0EE40DAF0EE60DAB0EE490AF0EE76
:101DF000690A06217844FFF707FF9DED041B51ECAB
:101E0000100B53EC112B02F011FC9DED040B41EC77
:101E10001A0B53EC102B9DED160B51EC100B02F02E
:101E200005FC41EC190B53EC1A2B51EC1D0B02F085
:101E30002DF953EC192B02F0F9FB53EC182B02F09F
:101E400025F99DED041B53EC112B02F0EFFB53EC35
:101E5000182B02F01BF941EC180B9FED790B51EC9C
:101E6000190B53EC102B02F0E1FB53EC182B02F092
:101E70000DF941EC190B9DED160B53EC192B51ECA0
:101E8000100B02F003F941EC180BA74269DC304655
:101E900002F065FB41EC1A0B51EC180B53EC1A2BBA
:101EA00002F0F4F841EC1B0B53EC182B51EC180B1F
:101EB00002F0BCFB53EC1B2B02F09CF953EC192BEA
:101EC00002F0C0FD9DED161B53EC112B02F0E2FC5D
:101ED0009FED5D1B53EC112B02F0A8FB53EC1A2B6A
:101EE00002F0D8FC41EC180B022000EAA570C0F10A
:101EF000010002F034FB53EC182B02F097FB00BFFB
:101F000041EC100B0AB0BDEC0C8B05B0F0BD711CA0
:101F10001698214308430CD09DED160B012E1CBFD3
:101F200053EC102B51EC1C0B10D000BF02F062F9E7
:101F3000E6E79DED160B51EC100B00F0F9FA41ECC1
:101F4000100B51EC1B0B53EC102BEFE751EC100B6B
:101F5000FFF730FA042808BF00F096F89DED160B45
:101F6000D0E7012E04BFB0EE480AF0EE680AC9D0EF
:101F70008DED048B002404949DED040B53EC102B89
:101F80009DED160B51EC100B02F084FC53EC192B59
:101F900002F080FC41EC190B53EC182B51EC1C0B9C
:101FA00002F028F941EC180B8DED008B00949DEDAB
:101FB000040B53EC102B9DED000B51EC100B02F0B9
:101FC00035FB53EC1B2B02F061F89DED000B41EC4F
:101FD0001A0B53EC192B51EC100B02F027FB53ECAE
:101FE0001A2B02F053F853EC182B02F01FFB9DED57
:101FF000001B53EC112B02F049F881E700000000B0
:102000000000303E00000000000000000000F03F33
:10201000000000000000F0BF2894E53F0000000031
:10202000182D4454FB21E93F075C143326A6813C5C
:102030000000000000000000CA350000E03500008C
:10204000635555555555D53F000000000000004030
:1020500010B553EC102B51EC100B02F017F841ECBB
:10206000100B10BD000000009FED050B10B553ECE8
:10207000102B51EC100B02F0BDF841EC100B10BD11
:1020800000000000000000009FED050B10B553ECB0
:10209000102B51EC100B02F0C9FA41EC100B10BDE3
:1020A000000000000000001010B51E48FEF7CAFD39
:1020B00000BF1C48FEF7FCFD0028FAD01A48FEF7C6
:1020C000C1FD00BF1848FEF7F3FD0028FAD01748FD
:1020D000FEF740FB1648FEF73DFB03211548FEF7CF
:1020E00076FB00211448FEF7F4FEFEF789FC044657
:1020F00060234FF4E13221460F48FEF7EDFEFEF774
:102100003FFC0E490C48FEF72DFF00214F20FEF743
:102110003FFC4F20FEF770FB50210748FEF71EFFE3
:1021200010BD0000071800F0040800F001000400D2
:102130000104040000400240003001401D0900007D
:1021400010B52DED028B4FF480715A48FEF775FEE5
:1021500059480068401C584908600846006805282E
:102160007DDB0020086000F0C9F95448016854483C
:10217000006800F0A7FB5348006820B1012809D08F
:10218000022806D14BE09FED501B9FED4F0B01F055
:102190000FFE8BE04E4890ED000B53EC102B4D489A
:1021A00090ED000B51EC100B02F04CFC41EC180BC5
:1021B000B0EE480AF0EE680A474801F031FC4748A3
:1021C00090ED000B53EC102B454890ED000B51ECBB
:1021D000100B02F037FC41EC180BB0EE480AF0EEA1
:1021E000680A404801F01CFC3E4890ED0E1BB0EE22
:1021F000410AF0EE610A51EC100B01F03BFF41EC9B
:10220000180B354890ED0E0BB0EE401AF0EE601A48
:10221000B0EE480AF0EE680A01F0CAFD46E02C482C
:1022200090ED000B53EC102B2A4890ED000B51EC75
:10223000100B02F007FC41EC180BB0EE480AF0EE70
:10224000680A254801F0ECFB244890ED000B53ECA4
:10225000102B234890ED000B51EC100B00E026E012
:1022600002F0F0FB41EC180BB0EE480AF0EE680A01
:102270001C4801F0D5FB1B4890ED0E1BB0EE410A47
:10228000F0EE610A51EC100B01F0F4FE41EC180B7A
:10229000114890ED0E0BB0EE401AF0EE601AB0EE61
:1022A000480AF0EE680A01F083FD00BF00BFBDECF4
:1022B000028B10BD00100340F4000020000100203C
:1022C000FC000020A800002000000000000000002A
:1022D000C80000200800002040090020C0000020A5
:1022E00010000020C009002010B500F007F94FF4DD
:1022F000967000F053F81A4802681A4801681AA04C
:10230000FEF790FE01201A49086042211948FEF7A5
:10231000D0FD4FF4167000F041F843211548FEF748
:10232000C8FD0F4801680F48006800F0CBFA12485A
:1023300090ED000B51EC100B02F0B4F804460F487E
:10234000214602680EA0FEF76DFE0C4800680A499F
:1023500091ED000B00F0A4F90F4880ED000B10BDCB
:1023600000010020FC00002025642C25640A0000E8
:102370006C01002000300140C800002058010020FE
:10238000677265656E5F7961775F6E6F773D256413
:102390002C783D25640A0000D800002070B5044662
:1023A000FEF72EFB40F6B831B0FBF1F000FB04F570
:1023B0002846FDF7DFFF70BD38B50446A4B115A06F
:1023C000006800901448006868B13223042269460E
:1023D0000020114D2D68A8473223042269460120B0
:1023E0000D4D2D68A84714E00CA0006800900A4825
:1023F000006868B13223042269460020064D2D682A
:10240000A8473223042269460120034D2D68A847BE
:1024100000BF38BD01F3016BF800002001F3006B31
:1024200010B504461848194909684454174800680B
:10243000401C1649086008460068042823DB08464B
:102440000068401E1049085C6B281CD10F480068CA
:10245000001F085C012816D10C480068801E095C2A
:102460000A480068C01E084A105C41EA002008497A
:10247000086008460068404202F071F8054A03C24D
:1024800000200249086010BD920A002024010020AB
:1024900000010020100100201549164A12688854D6
:1024A00014490968491C134A116011460968042936
:1024B0001CDB11460968491E0D4A515C6B2915D178
:1024C0000C490968091F515C01290FD109490968A4
:1024D000891E525C07490968C91E054B595C42EACE
:1024E0000121054A11600021024A11607047000075
:1024F000740A002020010020FC00002038B50AA04A
:10250000006800900948006868B1322303226946D8
:102510000020064C2468A04732230322694601208C
:10252000024C2468A04738BD01306B00F800002041
:1025300082B0CDE9000121F0004001909DED000B3B
:1025400002B051EC100B704710B547480068401CB2
:102550004549086045480068401C444908604248B5
:1025600000684349096888423BDB00203E49086017
:102570004048006828B1022211463F48FEF736F96C
:1025800004E0002202213C48FEF730F93B48006895
:1025900028B1002202213A48FEF728F921E0394803
:1025A000006840B1002037490860022211463448D3
:1025B000FEF71CF915E001203249086000220221D3
:1025C0002F48FEF713F92B48006828B12E48006801
:1025D000401C2D49086004E02B480068401E2A4931
:1025E0000860224800682949096888423BDB0020CE
:1025F0001E4908602648006828B1012211461E487D
:10260000FEF7F4F804E0002201211B48FEF7EEF883
:102610002048006828B1002204211948FEF7E6F896
:1026200021E01D48006840B100201B4908600422D9
:1026300011461348FEF7DAF815E001201649086044
:10264000002204210E48FEF7D1F81148006828B195
:1026500012480068401C1149086004E00F480068F7
:10266000401E0E49086010BD940100209801002012
:102670008C010020A401002000700040B401002063
:10268000005002409C010020AC010020900100207D
:10269000A8010020B8010020A0010020B001002006
:1026A00030B52DED108B83B0B0EE409AF0EE609A0D
:1026B00004466F480068D0B3C4F17D0001F04FFFBD
:1026C00041EC1F0B9FED6B0B53EC102B01F0AEFF99
:1026D00041EC1E0B9FED690B53EC102B01F08AFDB2
:1026E00041EC1D0B9FED670B53EC102B01F09EFF8F
:1026F00041EC1B0B9FED650B53EC102B51EC190BB0
:1027000001F078FD41EC1F0B9FED620B53EC102B99
:1027100001F08CFF41EC1E0BB0EE4E0AF0EE6E0A9B
:10272000FFF716F8B0EE40DAF0EE60DA00E01AE0FB
:102730009FED500B53EC102B51EC1D0B01F076FF6D
:1027400041EC1C0B53EC1B2B01F0A0FC41EC1A0BD1
:10275000B0EE4A0AF0EE6A0AFEF7B2FFB0EE408A27
:10276000F0EE608A55E0A4F17D0001F0F8FE41EC46
:102770001E0B9FED400B53EC102B01F057FF41EC6B
:102780001D0B9FED3E0B53EC102B01F033FD41EC84
:102790001C0B9FED3C0B53EC102B01F047FF41EC61
:1027A0001A0B9FED3A0B53EC102B51EC190B01F067
:1027B00021FD41EC1F0B9FED370B53EC102B01F06B
:1027C00035FF41EC1E0BB0EE4E0AF0EE6E0AFEF73E
:1027D000BFFFB0EE40DAF0EE60DA51EC1D0B01F015
:1027E00049FC41EC1C0B9FED230B53EC102B01F02B
:1027F0001DFF41EC1B0B53EC1A2B01F047FCCDE9FC
:1028000000019DED000BFEF75BFFB0EE408AF0EE9D
:10281000608A9FED220B53EC102B51EC180B01F04A
:1028200005FF41EC1A0B01F03DFE054629461DA0AF
:10283000FEF7F8FB53EC182B9FED1C0B51EC100B23
:1028400001F0B8FE10D89FED1B0B53EC102B51EC90
:10285000180B01F0AFFE07D8B0EE480AF0EE680A98
:1028600003B0BDEC108B30BD9FED140BF8E70000FA
:10287000D0000020000000000000F03F0000000039
:1028800000406F40000000000000E03F000000003A
:10289000008066404AD8124DFB210940000000002C
:1028A000000059404C5F3D25640A00003333333348
:1028B0003333D33F9A9999999999F13F00000000D9
:1028C0000000000070B52DED068B04460D46204932
:1028D0000968481B01F043FE41EC1A0B9FED1D0BEC
:1028E00053EC102B01F0A2FE41EC190B9FED1B0BDA
:1028F00053EC102B01F07EFC41EC180B9FED190BF3
:1029000053EC102B01F092FE184A03C218490968D3
:10291000081B01F024FE41EC1A0B9FED0E0B53EC4B
:10292000102B01F083FE41EC190B9FED0C0B53ECC7
:10293000102B01F05FFC41EC180B9FED0A0B53ECE0
:10294000102B01F073FE0B4A03C2BDEC068B70BD69
:10295000E8000020000000000000F03F0000000040
:102960000000F0400000000000807640C800002019
:10297000EC000020C000002030B52DED108B8DB094
:1029800004460D46FE48006800287DD0204601F030
:10299000E6FD41EC1F0B9FEDFB0B53EC102B01F000
:1029A00045FE41EC1E0B9FEDF90B53EC102B01F093
:1029B00021FC41EC1D0B9FEDF70B53EC102B01F0AC
:1029C00035FE41EC1C0BF54890ED000B53EC102B41
:1029D00051EC1C0B01F05AFB41EC1B0B9FEDF00B73
:1029E00053EC102B02F02EF841EC1A0BB0EE4A0A11
:1029F000F0EE6A0AFEF7F8FCB0EE409AF0EE609A4C
:102A00009FEDE90B53EC102B51EC190B01F0F2FB8D
:102A100041EC180B9FEDE60B53EC102B01F006FE7A
:102A2000E54A03C2204601F09AFD41EC1F0B9FEDE1
:102A3000D50B53EC102B01F0F9FD41EC1E0B9FED73
:102A4000D30B53EC102B01F0D5FB41EC1D0B9FED8C
:102A5000D10B53EC102B01F0E9FD41EC1C0BCF48DE
:102A600090ED000B53EC102B51EC1C0B01F00EFB06
:102A700041EC1B0B9FEDCA0B53EC102B01F0E2FF56
:102A800041EC190B204600E0ABE001F068FD41ECA1
:102A90001F0B9FEDBC0B53EC102B01F0C7FD41EC5D
:102AA0001E0B9FEDBA0B53EC102B01F0A3FB41EC76
:102AB0001D0B9FEDB80B53EC102B01F0B7FD41EC53
:102AC0001C0BB64890ED000B53EC102B51EC1C0B7B
:102AD00001F0DCFA41EC1B0B9FEDB10B53EC102B1A
:102AE00001F0B0FF41EC1A0B53EC192B01F09EFDE5
:102AF0009FEDA40B53EC102BCDE900019DED000BD5
:102B000051EC100B01F0C2FA41EC180BB0EE480A80
:102B1000F0EE680AFEF7DEFD8DED040B684201F071
:102B20001EFD41EC1D0B9FED970B53EC102B01F09C
:102B30007DFD41EC1C0B9FED950B53EC102B01F030
:102B400059FB41EC1B0B9FED930B53EC102B01F049
:102B50006DFD41EC1A0B9FED8F0B53EC102B01F028
:102B600095FA41EC190B9FED950B53EC102B01F0EE
:102B70008DFA41EC180B934890ED000B53EC102BA1
:102B800051EC180B01F05EFFCDE902019DED040B45
:102B900053EC102B9DED020B51EC100B01F02AFBB6
:102BA000CDE906019DED060BFEF71EFC8DED080B31
:102BB0009FED7D0B53EC102B9DED080B51EC100B92
:102BC00001F018FB9FED7A0B53EC102BCDE90A01B5
:102BD0009DED0A0B51EC100B01F028FD7A4A03C25F
:102BE00058E1604201F0BBFC41EC1F0B9FED650B0F
:102BF00053EC102B01F01AFD41EC1E0B9FED630B03
:102C000053EC102B01F0F6FA9FED620B53EC102BF6
:102C1000CDE90A019DED0A0B51EC100B01F006FD08
:102C200041EC1D0B5D4890ED000B53EC102B51EC6B
:102C30001D0B01F02BFA41EC1C0B9FED590B53ECD3
:102C4000102B01F023FA41EC1B0BB0EE4B0AF0EE17
:102C50006B0AFEF7C9FBB0EE40AAF0EE60AA51EC99
:102C60001A0B01F007FA41EC190B9FED4F0B53ECD7
:102C7000102B01F0BFFA41EC180B9FED4D0B53ECFC
:102C8000102B01F0D3FC4C4A03C2604201F067FCF8
:102C900041EC1F0B9FED3B0B53EC102B01F0C6FCDE
:102CA00041EC1E0B9FED390B53EC102B01F0A2FAF7
:102CB00041EC1D0B9FED370B53EC102B01F0B6FCD4
:102CC00041EC1C0B354890ED000B53EC102B51ECF4
:102CD0001C0B01F0DBF941EC1B0B9FED310B53ECAE
:102CE000102B01F0D3F9CDE90201604201F037FC6D
:102CF00041EC1F0B9FED230B53EC102B01F096FCC6
:102D000041EC1E0B9FED210B53EC102B01F072FADE
:102D100041EC1D0B9FED1F0B53EC102B01F086FCBB
:102D200041EC1C0B1D4890ED000B53EC102B51ECAB
:102D30001C0B01F0ABF941EC1B0B9FED190B53EC95
:102D4000102B01F0A3F9CDE900019DED020B53EC2E
:102D5000102B9DED000B51EC100B01F067FC41ECCA
:102D60001A0B9FED080B53EC102B01F08FF9CDE9F6
:102D700004019DED040BFEF7ADFC8DED080B25E085
:102D8000D0000020000000000000F03F0000000024
:102D900000406F40000000000000E03FD80000202D
:102DA000000000000000D03F4AD8124DFB2109402E
:102DB0000000000000806640B80000209A999999B0
:102DC0009999A93FE0000020B0000020684201F07E
:102DD000C6FB41EC1F0B1FED150B53EC102B01F044
:102DE00025FC41EC1E0B1FED170B53EC102B01F0D3
:102DF00001FA41EC1D0B1FED190B53EC102B01F0E8
:102E000015FC41EC1C0B1FED1D0B53EC102B01F0BE
:102E10003DF941EC1B0B1FED170B53EC102B01F090
:102E200035F941EC1A0B1D4890ED000B53EC102BBB
:102E300051EC1A0B01F006FECDE906019DED080BE1
:102E400053EC102B9DED060B51EC100B01F0D2F959
:102E500041EC190BB0EE490AF0EE690AFEF7C4FA2C
:102E6000B0EE408AF0EE608A1FED310B53EC102B70
:102E700051EC180B01F0BEF91FED330B53EC102B86
:102E8000CDE90A019DED0A0B51EC100B01F0CEFBD0
:102E9000034A03C20DB0BDEC108B30BDE000002032
:102EA000B000002010B52DED0C8B0446B0EE408A2A
:102EB000F0EE608A94ED080B84ED0A0B94ED060B9E
:102EC00084ED080B84ED068B94ED082BB0EE420ADE
:102ED000F0EE620A94ED062BB0EE421AF0EE621AA2
:102EE00053EC102B51EC110B01F0ACFD41EC1D0B20
:102EF00094ED081BB0EE410AF0EE610A53EC102B82
:102F000001F0A0FD41EC1C0B94ED0A1BB0EE410A50
:102F1000F0EE610A53EC102B01F0B8F841EC1B0BFA
:102F200094ED041BB0EE410AF0EE610A53EC102B55
:102F300001F07CFB41EC190B94ED062BB0EE420A3C
:102F4000F0EE620A94ED022BB0EE421AF0EE621A35
:102F500053EC102B51EC110B01F068FB41EC1B0BF7
:102F600094ED082BB0EE420AF0EE620A94ED062BC7
:102F7000B0EE421AF0EE621A53EC102B51EC110B2A
:102F800001F060FD41EC1D0B94ED001BB0EE410A19
:102F9000F0EE610A53EC102B01F048FB41EC1C0BE6
:102FA00053EC1B2B01F072F841EC1A0B53EC192B6C
:102FB00001F06CF8C4E9100194ED1E2BB0EE420A4A
:102FC000F0EE620A94ED102BB0EE421AF0EE621AA7
:102FD00053EC102B51EC110B01F0ECFA03D894EDEB
:102FE0001E0B84ED100B94ED1C2BB0EE420AF0EE9C
:102FF000620A94ED102BB0EE421AF0EE621A53EC16
:10300000102B51EC110B01F00FFC03D894ED1C0BAD
:1030100084ED100B94ED102BB0EE420AF0EE620A34
:1030200094ED0E2BB0EE421AF0EE621A53EC102B18
:1030300051EC110B01F02AF8C4E90E0194ED1A2BA2
:10304000B0EE420AF0EE620A94ED0E2BB0EE421A98
:10305000F0EE621A53EC102B51EC110B01F0AAFAAE
:1030600003D894ED1A0B84ED0E0B94ED182BB0EEF3
:10307000420AF0EE620A94ED0E2BB0EE421AF0EE28
:10308000621A53EC102B51EC110B01F0CDFB03D85D
:1030900094ED180B84ED0E0B94ED0E0BBDEC0C8B28
:1030A00010BD000070B52DED048B3548FDF7CAFD4D
:1030B00006213448FDF77CFB002204213148FDF74E
:1030C00095FB002202212F48FDF790FB2C48801E23
:1030D000FDF7B8FD03212C48FDF76AFB0022012112
:1030E0002948FDF783FB002202212748FDF77EFBDC
:1030F0002348001FFDF7A6FD10212448FDF758FBCB
:10310000002210212148FDF771FB2148FDF79AFDAF
:1031100020492148FDF75AFEFDF772FC4FF4FA41B1
:10312000B0FBF1F5284601F031FA41EC190B9FEDA7
:103130001B0B53EC102B01F079FA41EC180B01F04A
:10314000E1F9044622464FF47F411348FDF78EFE15
:10315000FDF716FC134A4FF47F410F48FDF773FE4D
:103160004FF480710C48FDF76AFE2420FDF744FB04
:103170004FF47F410848FDF759FEBDEC048B70BD4C
:10318000050800F000500240007000400050004070
:10319000000400F0002200040000034000000000D2
:1031A0000000E03F810D000010B51448FDF74AFD16
:1031B00013491448FDF70AFEFDF722FC4FF4FA719B
:1031C000B0FBF1F422464FF47F410E48FDF74EFE6E
:1031D000FDF7D6FB0C4A4FF47F410A48FDF733FE5A
:1031E0004FF480710748FDF72AFE2620FDF704FB07
:1031F0004FF47F410348FDF719FE10BD010400F0B4
:1032000000220004001003404121000010B50121FC
:103210004FF04020FDF7B8F9044621464FF040201A
:10322000FDF79AF904F0100010280AD100BF102110
:103230004FF04020FDF7B6FA0028F8D001200F49E2
:10324000086004F02000202816D100BF20214FF094
:103250004020FDF7A7FA0028F8D0022007490860AF
:10326000074890ED000B074880ED000B064890EDF5
:10327000000B064880ED000B10BD0000A8000020E8
:10328000C800002008000020C0000020100000201E
:1032900070B52DED028B01212548FDF775F9044627
:1032A00021462348FDF758F904F00400042827D1EB
:1032B00000BF04211E48FDF775FA0028F9D0002050
:1032C0001C4908601CA0FDF7ADFEFFF70DF81C4877
:1032D00001681CA0FDF7A6FE9FED1D0B53EC102B03
:1032E0001D4890ED000B51EC100B01F09FF941ECE3
:1032F000180B01F0D7F80546294618A0FDF792FEF5
:1033000004F00800082810D100BF08210848FDF784
:1033100049FA0028F9D01348006818B9012011496A
:10332000086002E000200F490860BDEC028B70BD10
:1033300000400240D000002072696768740A0000F3
:1033400058010020677265656E5F783D25640A004C
:103350000000000000005940D80000204C3D2564CA
:103360000A000000A80000202DED028B86B09FED22
:10337000D50BD64880ED000B9FEDD50B80ED020BF1
:103380009FEDD30B80ED040B9FEDD30B80ED180B5D
:103390009FEDD30B80ED1A0B0020CC4988649FED84
:1033A000C90BD14880ED000B9FEDC90B80ED020BDE
:1033B0009FEDC70B80ED040B9FEDC70B80ED180B45
:1033C0009FEDC70B80ED1A0B0020C7498864C748E2
:1033D000FDF79AFBC648FDF735FCC648FDF732FC01
:1033E0000120FDF7B7F940F20140FDF7B3F90321E1
:1033F0004FF04020FDF7EBF9FDF702FB04462246B3
:103400004FF4E1310020FDF7C3FDB948801CFDF702
:1034100019FC6021B848FDF7CBF940221146B648A7
:10342000FDF7E4F900222021B348FDF7DFF9B048A9
:10343000FDF708FCAE48001DFDF704FC00BFAC48DA
:10344000001DFDF735FC0028F9D0002230214FF097
:103450004020FDF768F800220C21A848FDF763F82A
:103460000A23012230214FF04020FDF7C8F80A233B
:1034700001220C21A148FDF7C2F8002230214FF0B3
:103480004020FDF789F800220C219C48FDF784F8C4
:103490009B494FF04020FDF768F89A499748FDF79F
:1034A00064F830214FF04020FDF759F80C21934883
:1034B000FDF755F81020FDF79FF91420FDF79CF952
:1034C000FDF75EFAFEF7F0FD9FED811B9FED800B8F
:1034D00000F06EFCFFF7E6FD00F028FD4FF496705B
:1034E000FEF75CFF0020FEF767FF4FF49670FEF7D3
:1034F00055FF85A0FDF796FDFEF7F6FE84480168AE
:1035000084A0FDF78FFD9FED860B53EC102B8648B2
:1035100090ED000B51EC100B01F088F841EC180B0A
:1035200000F0C0FF0446214680A0FDF77BFD9FED23
:10353000681B9FED670B00F03BFCFFF735FEC0E01A
:103540007C48006820B1012803D0022800D12CE07B
:10355000B6E0402211466848FDF748F900222021D4
:103560006548FDF743F97D210846FFF705FA7248E3
:1035700090ED000B714880ED000B714890ED000B51
:10358000704880ED000B4FF47A70FEF707FF0022C1
:1035900040215948FDF72AF9202211465648FDF7E7
:1035A00025F90020634908608AE04022114652480C
:1035B000FDF71CF9002220214F48FDF717F94321A0
:1035C0006148FDF776FC4FF49670FEF7E7FE0020A9
:1035D0005E49086041215C48FDF76BFC4FF4967032
:1035E000FEF7DCFE5A4A51681068FFF7C5F95248E9
:1035F00090ED000B514880ED000B514890ED000B11
:10360000504880ED000B4FF47A70FEF7C7FE0022A1
:1036100040213948FDF7EAF8202211463648FDF7E7
:10362000E5F84FF4FA70042102221423CDE90132A7
:10363000474C0092CDE90310E368A26861682068F6
:1036400000F088F84FF4FA70042102221423CDE927
:1036500001320092CDE9031063692269E168A06834
:1036600000F078F84FF4FA70042102221423CDE917
:1036700001320092CDE90310E369A2696169206912
:1036800000F068F84FF4FA70042102221423CDE907
:1036900001320092CDE9031063682268E169A069F4
:1036A00000F058F8402211461348FDF79FF8002219
:1036B00020211148FDF79AF800201E49086000BF3C
:1036C00000BF3DE7A60A462575028A3F4009002053
:1036D00000000000000000009A9999999999B93F5B
:1036E0009A9999999999B9BFC0090020403D8007DE
:1036F000000800F0001800F00060004000400240A8
:103700000D320000913200006C6566740A00000002
:1037100058010020677265656E5F783D25640A0078
:103720000000000000005940D80000204C3D2564F6
:103730000A000000A8000020B800002008000020B7
:10374000B000002010000020003001406C0100207B
:10375000540A00202DE9F04F2DED108B85B08146E5
:103760000F4615461C46DDF880B0484600F0F7FECF
:1037700041EC190B1E9800F0F2FE41EC1B0BA9EB7B
:10378000050149433A1B3B1B02FB031000F0E7FE17
:1037900041EC1F0BB0EE4F0AF0EE6F0AFDF79AFFF7
:1037A000B0EE40DAF0EE60DAA5EB090000F0D7FEEB
:1037B00041EC1E0B53EC1D2B00F01CFD41EC1C0BCF
:1037C00053EC1B2B00F032FF41EC1A0B53EC192B7E
:1037D00000F05CFC41EC180B00F064FE80463846BB
:1037E00000F0BDFE41EC190B1E9800F0B8FE41EC54
:1037F0001B0BA9EB050149433A1B3B1B02FB0310C2
:1038000000F0ADFE41EC1F0BB0EE4F0AF0EE6F0A78
:10381000FDF760FFB0EE40DAF0EE60DAE01B00F09A
:103820009EFE41EC1E0B53EC1D2B00F0E3FC41EC23
:103830001C0B53EC1B2B00F0F9FE41EC1A0B53EC64
:10384000192B00F023FC41EC180B00F02BFE064670
:10385000584600F084FE41EC190BA8EB05014943E2
:10386000321B331B02FB031000F079FE41EC1B0BF3
:10387000B0EE4B0AF0EE6B0AFDF72CFFB0EE40AA5B
:10388000F0EE60AA53EC192B51EC1A0B00F0B2FCCD
:1038900041EC180B00F006FE02904FF0000A8FE09A
:1038A0000BFB0AF000F05BFE41EC190BA8EB0501E5
:1038B0004943321B331B02FB031000F050FE41EC66
:1038C0001D0BB0EE4D0AF0EE6D0AFDF703FFB0EEF2
:1038D00040BAF0EE60BAA5EB080000F040FE41EC03
:1038E0001C0B53EC1B2B00F085FC41EC1A0B53EC2A
:1038F000192B00F09BFE41EC180B00F0D3FD404467
:1039000004900BFB0AF000F02AFE41EC190BA8EB27
:1039100005014943321B331B02FB031000F01FFE5D
:1039200041EC1D0BB0EE4D0AF0EE6D0AFDF7D2FE34
:10393000B0EE40BAF0EE60BAA01B00F010FE41EC11
:103940001C0B53EC1B2B00F055FC41EC1A0B53ECF9
:10395000192B00F06BFE41EC180B00F0A3FD304476
:103960000390DDE90310FFF707F800BF2548006862
:103970000028FBD0244890ED000B244880ED000B7C
:10398000234890ED000B234880ED000B204890ED7C
:10399000000B51EC100B00F085FD01901A4890EDE2
:1039A000000B51EC100B00F07DFD009001461AA0B9
:1039B000019AFDF737FB1F98FEF7F0FC0AF1010AA8
:1039C00002988245FFF66CAF00BF0E4800680028E1
:1039D000FBD021462846FEF7CFFF0B4890ED000BA9
:1039E0000A4880ED000B0A4890ED000B094880ED75
:1039F000000B2298FEF7D2FC05B0BDEC108BBDE8A1
:103A0000F08F0000A8000020B8000020080000206F
:103A1000B00000201000002025642C25640A00005E
:103A200010B52DED028B0446B0EE408AF0EE608AB0
:103A3000A06C10B1012810D107E0B0EE480AF0EEFA
:103A4000680A204600F010F807E0B0EE480AF0EEF1
:103A5000680A2046FFF726FA00BF00BF94ED0E0B60
:103A6000BDEC028B10BD000010B52DED0A8B044695
:103A7000B0EE408AF0EE608A53EC182B9FED6F0B8E
:103A800051EC100B00F096FD0DD89FED6E0B53EC32
:103A9000102B51EC180B00F08DFD04D89FED6B0B33
:103AA000BDEC0A8B10BD94ED0C1BB0EE410AF0EE9C
:103AB000610A53EC182B51EC100B00F0E7FAC4E943
:103AC0000C0194ED162BB0EE420AF0EE620A94ED72
:103AD0000C2BB0EE421AF0EE621A53EC102B51ECA4
:103AE000110B00F067FD03D894ED160B84ED0C0B61
:103AF00094ED142BB0EE420AF0EE620A94ED0C2B1A
:103B0000B0EE421AF0EE621A53EC102B51EC110B8E
:103B100000F08AFE03D894ED140B84ED0C0B94EDA9
:103B2000080B84ED0A0B94ED060B84ED080B84ED75
:103B3000068B94ED082BB0EE420AF0EE620A94ED8B
:103B4000062BB0EE421AF0EE621A53EC102B51EC39
:103B5000110B00F077FF41EC1B0B94ED041BB0EE52
:103B6000410AF0EE610A53EC102B00F05FFD41ECCE
:103B7000190B94ED0C2BB0EE420AF0EE620A94EDB4
:103B8000022BB0EE421AF0EE621A53EC102B51ECFD
:103B9000110B00F04BFD41EC1B0B94ED062BB0EE2E
:103BA000420AF0EE620A94ED002BB0EE421AF0EEFB
:103BB000621A53EC102B51EC110B00F037FD41EC65
:103BC0001C0B53EC1B2B00F061FA41EC1A0B53EC6D
:103BD000192B00F05BFAC4E90E0194ED1A2BB0EE3C
:103BE000420AF0EE620A94ED0E2BB0EE421AF0EEAD
:103BF000621A53EC102B51EC110B00F0DBFC03D8D4
:103C000094ED1A0B84ED0E0B94ED182BB0EE420AD6
:103C1000F0EE620A94ED0E2BB0EE421AF0EE621A4C
:103C200053EC102B51EC110B00F0FEFD03D894ED7A
:103C3000180B84ED0E0B94ED0E0B31E7FCA9F1D2BD
:103C40004D6250BFFCA9F1D24D62503F0000000010
:103C50000000000010B53A493A4A126888543949C0
:103C60000968491C374A11601146096805295FDB5C
:103C700011460968491E324A515CFF2958D1324920
:103C80000968324A116032490968324A11602D4987
:103C90000968491F2A4A515CFA2905DC2949096843
:103CA000491F515C284A116026490968091F244AA6
:103CB000515CFA2905DC23490968091F515C244A33
:103CC000116020490968C91E1D4A515C224A1160D1
:103CD0001C490968891E1A4A515C204A116000215A
:103CE000184A1160184909681B4A1268891A494321
:103CF000174A1268194B1B68D21A154B1B68174CD0
:103D000024681B1B02FB0311322905DC14490968D6
:103D1000491C134A116002E00021114A1160104948
:103D2000096840F6B832914202DB00210C4A11606A
:103D300004490968142902DB0021024A116010BD00
:103D4000400A002070010020500100206001002086
:103D50005401002064010020580100205C01002073
:103D60006801002010B504460E48006810B1012813
:103D700015D110E00C480D49096840F821400B4866
:103D80000068401C0949086008460068082801DBF3
:103D90000020086003E02046FFF75CFF00BF00BF83
:103DA00010BD00006C010020540A00204C010020CE
:103DB00010B52DED0A8BB0EE409AF0EE609AB0EEA1
:103DC000418AF0EE618AB0EE480AF0EE680AFDF72B
:103DD00077FCB0EE40AAF0EE60AA9FED460B53ECE4
:103DE000102B51EC1A0B00F0E5FB03D801204349DE
:103DF000086032E0B0EE480AF0EE680AFDF760FCB9
:103E0000B0EE40CAF0EE60CA53EC1C2B9FED3C0BA9
:103E100051EC100B00F0EEF941EC1B0B9FED3A0B4F
:103E200053EC102B00F0E6F941EC1A0B00F03AFBD2
:103E3000374908600020314908609FED360B53EC8C
:103E4000102B51EC180B00F0EFFC03D2012033498A
:103E5000086002E0002031490860B0EE490AF0EE47
:103E6000690AFDF72DFCB0EE40AAF0EE60AA9FEDC6
:103E7000210B53EC102B51EC1A0B00F09BFB03D8D9
:103E800001202749086032E0B0EE490AF0EE690AE5
:103E9000FDF716FCB0EE40CAF0EE60CA53EC1C2BE6
:103EA0009FED170B51EC100B00F0A4F941EC1B0B2C
:103EB0009FED150B53EC102B00F09CF941EC1A0B05
:103EC00000F0F0FA174908600020154908609FEDDE
:103ED000110B53EC102B51EC190B00F0A5FC03D285
:103EE00000201149086002E001200F490860BDEC84
:103EF0000A8B10BD2D431CEBE2361A3FB80100209F
:103F0000000000000040DF40000000000000A94069
:103F1000900100200000000000000000A801002027
:103F2000B40100208C010020A401002010B5044839
:103F30000449086000F008F800F050F810BD0000D7
:103F4000E10F0000F800002010B51E48FCF77AFED3
:103F500000BF1C48FCF7ACFE0028FAD01A48FCF75A
:103F600071FE00BF1848FCF7A3FE0028FAD04FF0FE
:103F70000110FCF7EFFB1548FCF7ECFB032114489C
:103F8000FCF725FC00211348FCF7A3FFFCF738FDE4
:103F9000044660234FF4E13221460E48FCF79CFFB3
:103FA000FCF7EEFC0C490B48FCF7DCFF0021162067
:103FB000FCF7EEFC1620FCF71FFC50210548FCF72F
:103FC000CDFF10BD011800F0010800F00104010050
:103FD0000050004000D000406D08000010B51E48A1
:103FE000FCF730FE00BF1C48FCF762FE0028FAD048
:103FF0001A48FCF727FE00BF1848FCF759FE0028B6
:10400000FAD01748FCF7A6FB1648FCF7A3FB3021B3
:104010001548FCF7DCFB00211448FCF75AFFFCF7BD
:10402000EFFC044660234FF4E13221460F48FCF7D1
:1040300053FFFCF7A5FC0E490C48FCF793FF002149
:104040004D20FCF7A5FC4D20FCF7D6FB502107487E
:10405000FCF784FF10BD0000051800F0040800F014
:10406000011004000114040000400240001001404F
:10407000C508000081F00041704780F000407047A3
:1040800021F00041704720F00040704710B591EAE0
:10409000030F48BF83F0004300F1DC84841A71EB06
:1040A000030C05D2121943EB0C03001B61EB0C014E
:1040B000DFF824E14FEA1154A4EB135C1EEA430F2E
:1040C00018BF9EEA445F73D023EA0E03DCF1200E92
:1040D00021EA045143F4801332D322FA0CFE10EB90
:1040E0000E0023FA0CFE41EB0E01CCF1200E03FA78
:1040F0000EFE10EB0E0051F10001B1F5801FCCF166
:10410000200E32D201EB045112FA0EF2BDE810403B
:1041100058BF7047401C38BF5FEA420218BF704763
:10412000002814BF20F0010041F100014FEA4103D3
:1041300013F5001F38BF7047A1F1C04100F06EBBFE
:10414000012A43EB0302ACF1200CDCF11F0E32BF5D
:104150004FF0000E23FA0CF310EB030041EB045177
:10416000B4EB115FD0D0A1EB045101F580114908E7
:104170005FEA300001EB04510ED350F1000038BF6C
:1041800012FA0EFE08D1BDE81040C9E7401C38BF46
:104190005FEA4202CAD1C3E7BDE810404FEA4103DB
:1041A00013F5001F38BF7047A1F1C04100F036BBC6
:1041B0009EEA445F08D011EA5E0FBDE8104004BFDC
:1041C00001F0004100207047BDE8104070B500F0DC
:1041D000D7FA00BF64FBBE3E0000E0FF491058BFA5
:1041E000C1F140415B1058BFC3F140438B42EFF334
:1041F000008070472DE9C04130B4DFF8A0C23CEA2E
:10420000111418BF3CEA131400F0EC8081EA030596
:104210001CEA111444EAD57418BF1CEA131500F007
:10422000C780A4EB05044FF0004545EAC12145EAEB
:10423000C32341EA505143EA525304F17F74994237
:1042400004F500344FEAC0204FEAC22208BF904272
:1042500000F09C804FEA13650FF24016765D4FEA3E
:10426000134506FB05F7C7F1807706FB07F74FEA12
:10427000D737A7FB03687642C8F58038A7FB06CE80
:1042800038BFA8F1010807FB08E64FF0000EA6FBB7
:10429000028CE6FB03CEDCF1000CCEF1004E38BF01
:1042A000AEF1010EA6FB0C584FF000074FF00005D1
:1042B000E6FB0E87A1FB08C6A0FB07CE16EB0E0699
:1042C00045F10005E1FB076515F1E04E7EBFA4F561
:1042D00080345FEA46066D4116F1800745F100051E
:1042E0004FEA17274FEA066647EA0567A6F1DE465A
:1042F000B6F1805F4FEA15251FD9384624F0010C2E
:1043000005EBC471BCF1FE6F01EB0C1102D8F0BCDF
:10431000BDE8008124425CBF01F5801E9EEAC47F97
:1043200002D4F0BCBDE80081244238D4F0BCA1F135
:10433000C041BDE8004100F071BA4FEAD22242EA22
:1043400043524FEAD323A7FB02864FEAD02040EA2C
:10435000415007FB03661EEA0E0F4FEAD12105FB11
:10436000026658BFA6EB0056B6EB00564FEA520E57
:104370004EEAC37E18EB0E0E56EB530EBDD518EB6E
:1043800002085E417F1C55F10005B6E74FF4801529
:104390004FF000074FF000064FF00008ADE7F0BC0B
:1043A0004FF0000001F1C04101F00041BDE8008183
:1043B00011EA0C1F0CEA131500D00CE013EA0C1FD5
:1043C00000F025804FF00000F0BC81EA030101F00D
:1043D0000041BDE80081F0BCBDE8004181EA030175
:1043E00000F01CBAF0BCBDE8004170B500F0C8F99F
:1043F000097EFC3E00F007B881EA03014FF000009F
:1044000001F00041704781EA030100F007BAF0BCF7
:10441000BDE800414FF0000021497047FFFDFBF966
:10442000F7F5F4F2F0EEEDEBE9E8E6E4E3E1E0DEE7
:10443000DDDBDAD8D7D5D4D3D1D0CFCDCCCBCAC859
:10444000C7C6C5C4C2C1C0BFBEBDBCBBBAB9B8B780
:10445000B6B5B4B3B2B1B0AFAEADACABAAA9A8A873
:10446000A7A6A5A4A3A3A2A1A09F9F9E9D9C9C9B41
:104470009A999998979796959594939392919190EC
:104480008F8F8E8E8D8C8C8B8B8A8989888887877D
:104490008685858484838382828181800000FF07F2
:1044A0000000F87F4FEA41034FEA5353A3F58063BE
:1044B000D3F11E03C8BFD3F1210C0CDD4FF0004235
:1044C00042EAC12242EA505232FA03FC8CEAE17C11
:1044D000ACEBE1707047102BC4BF0020704703F5B0
:1044E000787CBCF1FF3F04D06FF0004282EA2100EB
:1044F000704770B500F044F949922480002070475D
:10450000F2E700004FEA1153A3F58063D3F11E03D5
:10451000A8BFD3F1200C08DB4FF0004242EAC122D1
:1045200052EA505232FA03F0704709420BD4102B72
:10453000C4BF0020704703F5787CBCF1FF3F05D075
:104540004FF0FF3070474FF00000704770B500F03B
:1045500017F900BF4992248000207047F0E710F05F
:10456000004248BF4042B0FA80F310FA03F10AD08B
:10457000C3F11D0303F580634FEA415002EB035280
:1045800002EBD12170474FF000007047B0FA80F382
:1045900010FA03F10AD0C3F11D0303F580634FEA5B
:1045A00041504FEA035202EBD12170474FF0000017
:1045B0007047000051EA030C17D41CF5801F58BF48
:1045C000BCF5801F00F10680994218BF704708BFF4
:1045D0009042704707D711F5801F58BF13F5801F11
:1045E00019D499427047894270471CF5801F08D53D
:1045F000BCF5801FF7D58B4218BF704708BF8242B9
:1046000070474FF4001C1CEB410F38BF1CEB430FED
:1046100001D28B42704770B500F0B2F89224490085
:104620004FF000514FF08053FFF7D8BDDFF848C17D
:1046300070B51CEA111E1EBF1CEA13159EEA0C0F72
:1046400095EA0C0F00F06F8081EA030423EA4C1313
:104650004EEAD47E21EA4C1141F4801143F48013D8
:10466000AE44A1FB024CA0FB0365AEF17F7E361980
:1046700055EB0C05A1FB034C4CF10003A0FB021C05
:1046800016EB0C06654153F10003094218BF46F0D2
:10469000010613F4007F0BD14FEA03314FEA0530D6
:1046A000340341EA155140EA16506FF003020AE064
:1046B0004FEAC3214FEAC520F40241EA555140EACE
:1046C00056506FF0020202EB2E4201EB025585EAD2
:1046D000CE710AD05FEA440C18BF24F0004450F1B8
:1046E000000041F1000120EAD47040F2FE7C6245F6
:1046F00000D270BDA84214BF4FF080444FF0404438
:10470000002E08BF0024BEF1806FA8BFA1F1C041F8
:10471000BDE8704080F282804FF0000001F1C0419E
:1047200001F0004170479EEA0C0F0CEA131518BF08
:1047300095EA0C0F06D04FF0000081EA030E0EF050
:10474000004170BD00F01CF88900013E00F007B880
:1047500000F009B84FEA430C5FEA5C5C08D081EADC
:10476000030100F05BB84FEA410C5FEA5C5CF6D1F4
:104770004FF00000014970470000FF070000F87F7C
:104780000EF1020E2EF0030E5EF8046B364205D4D5
:10479000012A43EB030515F5001F12D8012841EB50
:1047A000010C1CF5001F0CD80ED14FEAD17C15F579
:1047B000001F0CEB4C0C0CF1020C08BF4CEBD37C33
:1047C00004E04FF0080C01E04FEAD37C0CEB4C0501
:1047D00026FA05F606F00706B6F1040C06D20EEB33
:1047E000860CBDE870404CF0010C6047DFE80CF02F
:1047F000090B02024FF000414FF00000A1F500212B
:1048000070BD19461046012851EB010418BFD4F5BC
:10481000001484BF002001F0004170BD0808A0F51D
:1048200000114FEA3101704753EA010C17D41CF50F
:10483000801F58BFBCF5801F00F106808B4218BF57
:10484000704708BF8242704707D713F5801F58BFD3
:1048500011F5801F19D48B4270479B4270471CF59D
:10486000801F08D5BCF5801FF7D5994218BF704747
:1048700008BF904270474FF4001C1CEB430F38BF39
:104880001CEB410F01D2994270470FB40CBC03BC22
:10489000FFF7C1BE91EA030F10B581F000413FF56B
:1048A000FDAB83F0004300F0D5B800002DE9F041E6
:1048B00001F5801CBCF5001FC0F2A9804FEA115C15
:1048C00021EA0C510CF1FD0C41F480115FEA5C0C03
:1048D0000CF5C07C01D34000494130A4890241EA73
:1048E000905187028E0E0A0CA45D04FB04F602FBB5
:1048F00006F6C6F14046A4FB0662F60D46EA4226DD
:1049000006FB06F4A4FB01235242C3F1404338BF27
:104910005B1EA6FB02420024E6FB0324D20B42EA04
:104920004446A6FB0623A1FB02E2A3FB07E4E3FB4C
:1049300061426442C2F1404E38BFAEF1010EA6FBA7
:1049400004234FF00002E6FB0E32A2FB03463400C4
:10495000E2FB6264A1FB06E6A4FB07E8E4FB6168F6
:104960007642C8F1405838BFA8F10108A2FB06E41E
:10497000A3FB08E5E2FB6854A1FB05E6A7FB04E8FE
:10498000E1FB648618F1200556F10006A809A8F19C
:104990001B08B10908F03F08B8F10A0F40EA866029
:1049A0001CD901EB0C51BDE8F08100BFFCF5EEE82D
:1049B000E2DDD8D3CFCBC7C3C0BDB9B6B4B1AEACBE
:1049C000A9A7A5A3A19F9D9B9A9896959392908F36
:1049D0008D8C8B898887868584838281A0FB006883
:1049E00000FB01F208EB4208B8EB872807D5341822
:1049F00058EB0104D5D5401C51F10001D1E7341A20
:104A000078EB0104CDD4401E71F10001C9E75FEAE3
:104A10004C0C5FEA9C5C0DD105D34FF0000001F017
:104A20000041BDE8F081BDE8F04170B5FFF7A8FE98
:104A30006DDBFFBEBDE8F0414FF00000004970475C
:104A40000000F87F10B591EA030F48BF83F00043E0
:104A50003FF524AB841A71EB030C07D212198CF0CA
:104A6000004C43EB0C03001B61EB0C01DFF8A4E1ED
:104A70004FEA1154A4EB135C1EEA430F18BF9EEAE1
:104A8000445F00F0B08023EA6E03524221EA0451F1
:104A9000C3EB6E0338BF5B1EDCF1200E25D322FA78
:104AA0000CFE10EB0E0043FA0CFE41EB0E01CCF1B4
:104AB000200E03FA0EFE10EB0E0051F10001CCF1B6
:104AC000200E29D412FA0EF201EB0451BDE8104079
:104AD00058BF7047401C1CBFB2F1004F7047002800
:104AE0000CBF491C20F00100704712EB020E43EB93
:104AF000030218BF4FF0010E4EEA4202ACF1200C47
:104B0000DCF11E0E54D943FA0CFE10EB0E0051F1ED
:104B1000FF31CCF11E0ED5D50EF1010E12FA0EFEAC
:104B2000404141EB010101EB445C5FEA5C5C10D960
:104B300010EBDE7001EB045138BFBEF1004FBDE851
:104B4000104018BF704700280CBF491C20F001001E
:104B5000704730D24FEAD42C11F5001124F40064D0
:104B60001BD0B1FA81F20B3AA41AA41ED2F1200391
:104B7000914030FA03F31943904001EBCC71002CC3
:104B800001EB0451BDE81040A8BF704701F1C041DE
:104B90004FF0000001F000417047B0FA80F310FAC6
:104BA00003F100D110BDE41A173C4805C90AE4E737
:104BB00001EB045110BD491001EB0451BDE8104058
:104BC0004FEA300002E04FF0000170474A0008BF92
:104BD0000042F8D0B2F5001F28BF704701F0004135
:104BE0004FF0000070479EEA445F07D011EA5E0F65
:104BF000BDE8104004BF002100207047BDE8104010
:104C000070B5FFF7BDFD00BF40DFF63E83F0004109
:104C1000104670470000E0FF4FF04070E1EE100AD0
:104C20007047000000400040100000000080054078
:104C300010000000005000401100000000900540EE
:104C400011000000006000401200000000A00540BC
:104C500012000000007000401300000000B005408A
:104C600013000000004002401400000000C0054096
:104C700014000000005002402E00000000D005404B
:104C80002E000000006002402F00000000E0054000
:104C90002F000000007002403000000000F00540CE
:104CA0003000000000D00340460000000000064035
:104CB00046000000001006404700000000200640AB
:104CC00048000000003006407F0000000040064021
:104CD0008000000000500640840000000060064094
:104CE0008C000000004000401000000000800540E3
:104CF000100000000050004011000000009005402E
:104D000011000000006000401200000000A00540FB
:104D100012000000007000401300000000B00540C9
:104D200013000000004002401400000000C00540D5
:104D300014000000005002402E00000000D005408A
:104D40002E000000006002402F00000000E005403F
:104D50002F000000007002403000000000F005400D
:104D60003000000000D00340430000000000064077
:104D700043000000001006404400000000200640F0
:104D8000450000000030064058000000004006408A
:104D900059000000005006405C0000000060064022
:104DA00064000000004000400080054000500040CA
:104DB000009005400060004000A0054000700040E9
:104DC00000B005400040024000C0054000500240D5
:104DD00000D005400060024000E005400070024045
:104DE00000F0054000D003400000064000100640DF
:104DF000001006400020064000200640003006401B
:104E0000003006400040064000400640005006408A
:104E100000500640006006400060064000700640FA
:104E2000007006400080064000800640009006406A
:104E3000009006400007000000060000000500008A
:104E40000004000000030000000200000001000058
:104E5000000000000000000018ED00E01CED00E084
:104E600020ED00E000E400E004E400E008E400E0FD
:104E70000CE400E010E400E014E400E018E400E0DA
:104E80001CE400E020E400E024E400E028E400E08A
:104E90002CE400E030E400E034E400E038E400E03A
:104EA0003CE400E040E400E044E400E048E400E0EA
:104EB0004CE400E050E400E054E400E058E400E09A
:104EC0005CE400E060E400E064E400E068E400E04A
:104ED0006CE400E070E400E074E400E078E400E0FA
:104EE0007CE400E080E400E084E400E088E400E0AA
:104EF00000E100E004E100E008E100E00CE100E096
:104F000010E100E080E100E084E100E088E100E001
:104F10008CE100E090E100E000E200E004E200E06B
:104F200008E200E00CE200E010E200E080E200E0D5
:104F300084E200E088E200E08CE200E090E200E041
:104F400040420F0000201C0080841E0000802500CD
:104F5000999E36000040380000093D0000803E0068
:104F600000004B00404B4C0000204E00808D5B0049
:104F700000C05D000080700000127A0000007D001B
:104F800080969800001BB7000080BB00C0E8CE00F0
:104F9000647ADA000024F4000000FA0080A812010C
:104FA000002D310100366E0140787D014000000087
:104FB000000000003E00080000000000A00000000B
:104FC0000200000034540100000000002B700600B5
:104FD0000000000028000000000000002700010081
:104FE0000000000020000000000000005000000051
:104FF000020000001AAC0000000000001794090035
:1050000000000000169805000000000014000000D9
:10501000000000001380080000000000A000000055
:105020000800000010000000000000002800000040
:1050300002000000400000000400000060000000CA
:10504000000000005D000C000000000050000000A7
:10505000000000004E0002000000000041AC010012
:10506000000000003C000000000000003A80090041
:1050700000000000300000000000000028000000D8
:10508000000000002700010000000000236006006F
:105090000000000021600800000000001E00000069
:1050A000000000001DC004000000000050000000CF
:1050B00002000000180000000000000014000000C2
:1050C0000000000060000000040000000024F40064
:1050D0003000300080C3C9017100710080F0FA0215
:1050E000B200B20000879303D300D30000B4C4041D
:1050F0001401140100E1F50555015501000E2707C3
:105100009601960100D0121300389C1C0000034049
:105110002300000000100340250000000020034091
:10512000270000000030034033000000004003402F
:1051300056000000005003406C0000000060034077
:105140006E000000007003407000000000C00440CA
:105150007200000000D004407400000000E0044031
:105160007600000000F004407800000000000340DA
:105170002300000000100340250000000020034031
:1051800027000000003003403300000000400340CF
:105190004F000000005003405100000000000E408E
:1051A0007200000000100E407400000000C00040BB
:1051B0001500000000D000401600000000E0004094
:1051C0003100000000F000404B00000000000140F2
:1051D0004C000000001001404D0000000020014084
:1051E0004E000000003001404F00000000C00040B1
:1051F0001500000000D000401600000000E0004054
:105200003100000000F000404800000000000140B4
:1052100049000000001001404A0000000020014049
:105220004B000000003001404C000000085400001A
:1052300000C0004000D0004000E00040001800F036
:10524000011800F0021800F04FBB610567ACDD3FAC
:10525000182D4454FB21E93F9BF681D20B73EF3F9D
:10526000182D4454FB21F93FE2652F227F2B7A3C15
:10527000075C143326A6813CBDCBF07A8807703CCE
:10528000075C143326A6913CC4EB98999999C9BF41
:10529000711623FEC671BCBF6D9A74AFF2B0B3BF76
:1052A0009AFDDE522DDEADBF2F6C6A2C44B4A2BF36
:1052B0000D5555555555D53FFF8300922449C23FA2
:1052C0006E204CC5CD45B73F513DD0A0660DB13FD6
:1052D000EB0D76244B7BA93F11DA22E33AAD903FE8
:1052E00000004054FB21F93F3163621A61B4D03DA4
:1052F0000000601A61B4D03D7370032E8A19A33B7D
:105300000000002E8A19A33BC14920259A837B39CE
:1053100000000000000000006E83F9A22915444E31
:10532000D15727FCC0DD34F5999562DB4190433CB1
:10533000AB6351FE61C5BBDE3A6E24B7E0D24D428D
:10534000EA2E49061C92D1091CEB1DFE3EA729B18D
:10535000F53582E88444BB2E26709CE9417E5FB41B
:1053600039D69139F43953838B5F849C3B28F9BD3E
:10537000FF97F81F0F9805DE8B112FEF1F6D0A5A4C
:10538000CF7E366DB709CB27663F464F2DEA5F9E2D
:10539000C7BA27757BF1E5EBF739073DEA92528AE8
:1053A000B15FFB6B085D8D1F7AFE10111111C13FBB
:1053B00037D60684F464963F280356C9226D6D3FA4
:1053C0000165F2F2D844433FA69237A0887E143F8D
:1053D000735360DBCB75F3BEFE41B31BBAA1AB3F89
:1053E00093846EE9E326823F1583E0FEC8DB573FD6
:1053F00068108D1AF726303FE9A7F0320FB8123F38
:10540000D47ABF74702AFB3E3031323334353637AC
:105410003839616263646566000000003C54000036
:10542000000000206C060000A8020000B454000038
:105430006C060020A406000004030000D11E406991
:10544000409A99014B595D0854C968404B805C08EB
:105450002D906A4033015A53104B506C28CB795C25
:10546000301ED05F40CDCC017B8C6A10693039187A
:105470004BCC5F485AC3304BA061402D896A4066CF
:10548000014BA661087B466C200128D201200DE06B
:105490003F713D0AD7A370CD3F9AAF037EE416C992
:1054A0009C3112D00927D801FF01FF01FF01FF0144
:0454B000C800000030
:040000050000026D88
:00000001FF
