:020000040000FA
:10000000A80E00207D030000850300008703000088
:10001000890300008B0300008D0300000000000036
:100020000000000000000000000000008F0300003E
:1000300091030000000000009303000095030000FE
:1000400097030000990300009B0300009D0300003C
:100050009F030000A1030000A3030000A50300000C
:10006000A7030000A9030000AB030000AD030000DC
:10007000AF030000B1030000B3030000B5030000AC
:10008000B7030000B9030000BB030000BD0300007C
:10009000BF030000C1030000C3030000C50300004C
:1000A000C7030000C9030000CB030000CD0300001C
:1000B000CF030000D1030000D3030000D5030000EC
:1000C000D7030000D9030000DB030000DD030000BC
:1000D000DF030000E1030000E3030000E50300008C
:1000E000E7030000E903000000000000EB0300004C
:1000F000ED030000EF030000F1030000F303000034
:10010000F5030000F7030000F9030000FB03000003
:100110000000000000000000FD030000FF030000DD
:1001200001040000030400000504000007040000AF
:10013000090400000B0400000D0400000F0400007F
:1001400000000000000000000000000000000000AF
:10015000110400001304000015040000170400003F
:10016000000000000000000000000000000000008F
:10017000000000000000000000000000000000007F
:10018000000000000000000000000000000000006F
:10019000000000000000000000000000000000005F
:1001A000000000000000000000000000000000004F
:1001B000190400001B0400001D0400001F040000BF
:1001C000210400002304000025040000270400008F
:1001D000290400002B0400002D0400002F0400005F
:1001E000310400003304000035040000000000006A
:1001F0000000000037040000390400003B04000048
:100200003D0400003F04000000000000000000006A
:1002100041040000430400004504000047040000BE
:10022000490400004B0400004D0400004F0400008E
:10023000510400005304000055040000570400005E
:10024000590400005B0400005D0400005F0400002E
:1002500061040000630400006504000067040000FE
:10026000690400006B0400006D04000000F002F857
:1002700000F05CF80AA090E8000C82448344AAF1E4
:100280000107DA4501D100F051F8AFF2090EBAE8E2
:100290000F0013F0010F18BFFB1A43F001031847BA
:1002A000944A0000B44A00000A444FF0000C10F8D1
:1002B000013B13F0070408BF10F8014B1D1108BFE4
:1002C00010F8015B641E05D010F8016B641E01F884
:1002D000016BF9D113F0080F1EBF10F8014BAD1CD4
:1002E0000C1B09D16D1E58BF01F801CBFAD505E0F2
:1002F00014F8016B01F8016B6D1EF9D59142D6D34C
:10030000704700000023002400250026103A28BF73
:1003100078C1FBD8520728BF30C148BF0B60704777
:100320001FB504F097F91FBD10B510BD00F0C6F859
:100330001146FFF7F5FF02F08DFB00F0E4F803B47F
:10034000FFF7F2FF03BC00F0E7F80000EFF31080C6
:1003500072B67047EFF310807047EFF3108062B60B
:10036000704730BF704780F311887047EFF31180FA
:10037000704700000138FDD1704700003F488047BA
:100380003F480047FEE7FEE7FEE7FEE7FEE7FEE741
:10039000FEE7FEE7FEE7FEE7FEE7FEE7FEE7FEE735
:1003A000FEE7FEE7FEE7FEE7FEE7FEE7FEE7FEE725
:1003B000FEE7FEE7FEE7FEE7FEE7FEE7FEE7FEE715
:1003C000FEE7FEE7FEE7FEE7FEE7FEE7FEE7FEE705
:1003D000FEE7FEE7FEE7FEE7FEE7FEE7FEE7FEE7F5
:1003E000FEE7FEE7FEE7FEE7FEE7FEE7FEE7FEE7E5
:1003F000FEE7FEE7FEE7FEE7FEE7FEE7FEE7FEE7D5
:10040000FEE7FEE7FEE7FEE7FEE7FEE7FEE7FEE7C4
:10041000FEE7FEE7FEE7FEE7FEE7FEE7FEE7FEE7B4
:10042000FEE7FEE7FEE7FEE7FEE7FEE7FEE7FEE7A4
:10043000FEE7FEE7FEE7FEE7FEE7FEE7FEE7FEE794
:10044000FEE7FEE7FEE7FEE7FEE7FEE7FEE7FEE784
:10045000FEE7FEE7FEE7FEE7FEE7FEE7FEE7FEE774
:10046000FEE7FEE7FEE7FEE7FEE7FEE7FEE7000049
:1004700004480549034A054B70470000E90C000099
:100480006D020000A80C0020A80E0020A80C00207F
:1004900070477047704710B500F008F8006810BD4D
:1004A00010B5044600F002F8046010BD0048704723
:1004B000480C002000487047480C00207546FFF7A4
:1004C000F9FFAE4605006946534620F00700854611
:1004D00018B020B5FFF7CCFFBDE820404FF0000674
:1004E0004FF000074FF000084FF0000B21F007011C
:1004F000AC46ACE8C009ACE8C009ACE8C009ACE85F
:10050000C0098D46704710B50446AFF30080204601
:10051000BDE81040FFF713BF01491820ABBEFEE74E
:1005200026000200704702F001031BB1D0F800342E
:100530000B4302E0D0F800348B43C0F8003402F0E3
:1005400002031BB1D0F820340B4302E0D0F8203472
:100550008B43C0F820347047C0F81C147047D0F8A3
:1005600010240A43C0F81024704770B504460D46A5
:10057000204600F009FF06462946304600F022FAE0
:10058000304600F039F970BD024611B1D2F81804B6
:100590007047D2F81404FBE702F001031BB1D0F856
:1005A00008340B4302E0D0F808348B43C0F8083419
:1005B00002F002031BB1D0F804340B4302E0D0F880
:1005C00004348B43C0F8043402F004031BB1D0F8A8
:1005D0000C340B4302E0D0F80C348B43C0F80C34DD
:1005E00002F4803323B1D0F8383543F0010303E03F
:1005F000D0F8383523F00103C0F838357047F0B52E
:1006000002F001051DB1D0F800550D4302E0D0F80D
:1006100000558D43C0F8005502F002051DB1D0F819
:1006200004550D4302E0D0F804558D43C0F804553D
:1006300002F004051DB1D0F808550D4302E0D0F8D2
:1006400008558D43C0F8085502F008051DB1D0F8D3
:1006500018550D4302E0D0F818558D43C0F81855D1
:1006600002F010051DB1D0F83C550D4302E0D0F862
:100670003C558D43C0F83C55002416E00125A540AB
:100680000D4085B1D0F8C45F67000326BE40B54376
:10069000C0F8C45FD0F8C45F6700C2F34116BE4023
:1006A0003543C0F8C45F651CECB2082CE6DB03F0F0
:1006B00001051DB1D0F80C550D4302E0D0F80C55E2
:1006C0008D43C0F80C5503F002051DB1D0F810554C
:1006D0000D4302E0D0F810558D43C0F8105503F0DB
:1006E00004051DB1D0F814550D4302E0D0F814559F
:1006F0008D43C0F8145503F008051DB1D0F81C5502
:100700000D4302E0D0F81C558D43C0F81C5503F48E
:1007100000751DB1D0F844550D4302E0D0F84455A2
:100720008D43C0F8445503F440751DB1D0F84055D1
:100730000D4302E0D0F840558D43C0F840551BB939
:10074000D0F828550D4302E0D0F828558D43C0F865
:100750002855F0BD10B50146C1F307400F4BDB6EC5
:1007600001248440234033B1012303EB40030C4CAC
:1007700054F8230003E04300094C54F82300C1F36C
:100780000722D0F82C350F249440A34301F00F0426
:1007900094402343C0F82C3510BD000000E00F400A
:1007A000E04700000246002000EB8100105870472F
:1007B00030B504460D460823012229462046FFF79E
:1007C0001EFF012229462046FFF7ADFE30BD30B5A1
:1007D00004460D46022229462046FFF7A4FE0823C0
:1007E000012229462046FFF70AFF30BD002303EB14
:1007F0008103C25070470000042806D119490968D6
:1008000041F48031174A11602BE0052806D11549C3
:10081000096841F40031134A116022E0062806D12C
:100820001049096841F480210E4A116019E00F282F
:1008300008D14FF0E021096941F002014FF0E022B8
:1008400011610EE010280CD3A0F1100101F01F027D
:1008500001219140A0F110025209034B53F82220CC
:100860001160704724ED00E02C49000070B50121B3
:10087000134800F07DFB04462146114800F063FB5D
:10088000102C0CD106E00E4800F0F8FAC5B228464C
:1008900002F0CCFD0A4800F00DFB0028F3D1402CFB
:1008A0000CD106E0064800F0E9FAC5B2284602F08D
:1008B000BDFD034800F0FEFA0028F3D170BD000032
:1008C00000D0004070B50121134800F051FB0446F0
:1008D0002146114800F037FB102C0CD106E00E48E1
:1008E00000F0CCFAC5B2284602F0B4FC0A4800F089
:1008F000E1FA0028F3D1402C0CD106E0064800F0C4
:10090000BDFAC5B2284602F0A5FC034800F0D2FAB1
:100910000028F3D170BD00000010014010B5012186
:10092000154800F025FB04462146134800F00BFB58
:10093000102C0ED108E0104800F0A0FA0F49087002
:100940000846007802F0C4FF0B4800F0B3FA002814
:10095000F1D1402C0ED108E0074800F08FFA07498A
:1009600008700846007802F0B3FF034800F0A2FACE
:100970000028F1D110BD000000300140000100202E
:1009800010B5FFF7EAFC08B1012010BD0020FCE71C
:1009900010B50A4683080A4C54F8233019688307B7
:1009A000DC0EFF23A34099438307DB0E02FA03F317
:1009B00019438308024C54F82330196010BD00001D
:1009C0009048000030B502460B4C24680B4DAC42F9
:1009D0000ED0094C2368002005E053F82040074D55
:1009E00045F82040401C9B28F7D3044C024D2C6056
:1009F000024C44F8221030BD08ED00E00004002055
:100A000070B53C48036E016F01F0004010B101F079
:100A1000700001E003F03000202811D003DC38B171
:100A2000102815D10AE030280CD0702810D10CE025
:100A30003148C3F3841650F826200BE02F4A09E012
:100A40002F4A07E047F2305204E04FF4004201E041
:100A5000002070BD00BF01F0004010B101F4006043
:100A600028B101F00040E0B903F40060C8B925489E
:100A700005682048D0F8644104F01F00401CC4F30E
:100A80000426761C10FB06F04000B2FBF0F2C5F322
:100A900009005043C5F38926564300EB962243F4E0
:100AA000800303F4800018B301F00040D8B101F0D6
:100AB000804090B101F0004010B101F4006028B115
:100AC00001F0004048B903F4006030B95600C1F3AA
:100AD0008650401CB6FBF0F20AE0C1F3C550401C42
:100AE000B2FBF0F204E0C3F3C350401CB2FBF0F2DF
:100AF0001046AEE700E00F407C4900000024F400FF
:100B000000093D0060E10F402DE9F04106464948EB
:100B1000056E046F45F4006525F4800544F4006417
:100B20000566046705F0010010B306F00100F8B98E
:100B300066F0010005403F48056604F0004038B10A
:100B400004F0700030280AD004F07000702806D03D
:100B500004F0004040B905F03000302804D14FF4D3
:100B60008050FFF707FC03E04FF40020FFF702FC82
:100B700025F4FE6506F4FE6005432F4804402E4927
:100B8000A13106EA0100044306F0080044EAC0046B
:100B90002848056604671020FFF7ECFB25F4005594
:100BA00006F40050054324F4005406F400500443B6
:100BB00040202049886504F0004018B108460467C9
:100BC000056602E01B48056604671C480540C143F2
:100BD00006EA0100054324F0FC5406F0FC500443EF
:100BE00006F0804040B145F4800524F480041449A7
:100BF00006EA0100044301E024F0804406F40060AA
:100C000080B94FF4004706E00A48006D00F040004C
:100C100000B102E07F1E002FF6D100BF25F4006571
:100C200024F400640348056604671020FFF7A2FB64
:100C3000BDE8F08100E00F408FFFFF7FFEFF3FF82F
:100C40000000404010B50121C0F30722094B1A44AF
:100C500002F0704242F00072C0F30723054C2344B7
:100C6000C3F3130342EA4312C3B242EA83021160A0
:100C700010BD000000E60F400146C1F307200B4AFB
:100C8000104400F0704040F00070C1F30722074BA1
:100C90001A44C2F3130240EA4210CAB240EA820088
:100CA000006808B1012070470020FCE700E30F4016
:100CB0000146C1F307200B4A104400F0704040F099
:100CC0000070C1F30722074B1A44C2F3130240EA33
:100CD0004210CAB240EA8200006808B101207047A1
:100CE0000020FCE700EA0F401B49096841F470014D
:100CF000194A116019491A4A11671A4911661A49A5
:100D000011661A491167002000E0401CB0F57A7F97
:100D1000FBD31749124A116616491167002000E0FB
:100D2000401CB0F57A7FFBD313490D4A116600BF12
:100D30000B49096D01F040014029F9D10F49084ADA
:100D400011664FF0C0711167002000E0401C42F2B4
:100D500010718842FAD3704788ED00E010288007B0
:100D600000E00F40D13A8E07422D9E0100288001FD
:100D7000420D9E0100088001420DDE014205DE01A8
:100D800010B54FF480710E4800F057F80D48006818
:100D900050B1002210210C48FFF728FD002009491E
:100DA000086000F0CDFF09E0102211460648FFF769
:100DB0001DFD01200349086000F0C2FF10BD0000C6
:100DC000000003405001002000500040C26840F283
:100DD00001139A43C2600A0E0260114A1268114B55
:100DE0001A40114B9A4211D1CAB201F4702342EA5F
:100DF000131242F40072426001F47002C1F307233F
:100E000043EA122242F40072826008E0CAB242F45D
:100E100000724260C1F3072242F4007282607047A0
:100E200000E00F400000FF7000000A10C26840F2AE
:100E300001130B401A43C2607047416270478269D8
:100E40000A43826170472DE9F04105460E4614467B
:100E50003146284600F0BEFA074621463846FFF7DD
:100E6000B1FD3846FFF7C8FCBDE8F081CBB203B155
:100E7000826201F47F4303B1C26270470146886910
:100E800000F0100008B9086870474FF0FF30FBE72A
:100E900000BF826902F02002002AFAD10160704787
:100EA0000246906900F0200010B9116001207047DF
:100EB0000020FCE701468869012222EA10107047F1
:100EC000C0F8C81F7047F0B504460E4615461F46C9
:100ED000204600F01EF8B6EB051F05D2206B40F04F
:100EE000200020636D0803E0206B20F020002063C9
:100EF000F000B0FBF5F0401C43089809606203F075
:100F00003F00A062E7620020A061204600F011F8D7
:100F1000F0BD00BF816901F008010029FAD1C16A62
:100F200021F01001C162016B40F201329143016373
:100F30007047C16A41F01001C162016B40F2013299
:100F400011430163704741647047826B0A438263B7
:100F5000704770B504460D46204600F067FA064615
:100F600029463046FFF72EFD3046FFF745FC70BDA1
:100F7000024609B1106C7047D06BFCE770B50446AF
:100F80000D4616460E4951F82400FFF775FE00B9CC
:100F900070BD0C4850F824000B490860084951F80E
:100FA0002400FFF74FFE60232A46314606480068BA
:100FB000FFF789FF04480068FFF7BBFF00BFE7E7C2
:100FC000784C00006C4C0000F80000202DE9F04146
:100FD00007460D461646002404E0295D3846FFF713
:100FE00057FF641CB442F8DBBDE8F0810FB408B5CC
:100FF00003A800900099029800F006F800200090E5
:1010000001B05DF814FB00002DE9F34F85B00646F2
:1010100012E1002400E0641C305D252802D0305D20
:101020000028F8D12146304600F016F926443078E1
:101030002528EDD1761C00254FF0200B00BF16F8B7
:10104000011B382932D014DC33292AD008DC2529A9
:101050006FD0302922D0312921D032296AD11FE026
:1010600034291FD035291ED036291DD03729F5D176
:101070001BE0692935D008DC392918D0582972D0ED
:10108000632922D06429E9D12AE070296CD0732920
:101090003CD0752958D07829E0D163E000BF00BF6B
:1010A00000BF00BF00BF00BF00BF00BF00BF16F8F9
:1010B000010C302801D105B9834605EB85004500B8
:1010C00016F8010C30380544B9E70698006804901A
:1010D0000698001D0690012104A800F0BDF8AAE0C2
:1010E00000BF0698006804900698001D06904FF017
:1010F00000080498002805DA0498404204904FF054
:10110000010901E04FF000090A2739E0069850F87C
:1011100004AB0690002400E0641C1AF804000028C8
:10112000FAD12146504600F097F8A5420BD92D1B65
:1011300005E076E07AE0012143A000F08DF8281E5A
:10114000A5F10105F7D176E00698006804900698AD
:10115000001D06904FF000080A274FF000090FE02D
:1011600001E001E000BF00BF069800680490069807
:10117000001D06904FF0000810274FF0000900BF37
:10118000012401E07C436D1E04FB07F004998842B2
:1011900005D804FB07F0B0FBF7F0A042F2D0B9F19C
:1011A000000F00D06D1EB9F1000F0AD0BBF1300F57
:1011B00007D12D22404608F101080DF800204FF01C
:1011C0000009012D0BD9102D09D26D1E05E04046F6
:1011D00008F101080DF800B06D1E002DF7D1B9F12E
:1011E000000F05D02D22404608F101080DF800201F
:1011F00010E00498B0FBF4F0B0FBF7F107FB11002E
:10120000124909680A5C404608F101080DF80020FF
:10121000B4FBF7F4002CECD14146684600F01CF812
:1012200009E0701E012100F017F804E0052108A074
:1012300000F012F800BF00BF307800287FF4E9AE5C
:1012400007B0BDE8F08F000020000000684C0000EF
:101250004552524F5200000070B505460E4600241C
:101260000DE0285D0A2804D10D2107480068FFF72A
:101270000FFE295D04480068FFF70AFE641CB442B3
:10128000EFD3204670BD0000F80000207FB5064671
:101290000C461546002000900190029003908DF8B6
:1012A0000060F3208DF80100AB208DF802008DF86E
:1012B00003408DF804506B208DF805000621684628
:1012C00002F0EAFB7FBD7FB505460C46002000908A
:1012D0000190029003908DF80050102C49D2DFE865
:1012E00004F0080C1014181C2024282C3034383C2E
:1012F00040441F208DF801003CE020208DF80100C3
:1013000038E021208DF8010034E024208DF8010020
:1013100030E026208DF801002CE027208DF8010018
:1013200028E030208DF8010024E031208DF8010004
:1013300020E033208DF801001CE035208DF80100FD
:1013400018E036208DF8010014E037208DF80100F8
:1013500010E039208DF801000CE03A208DF80100F2
:1013600008E042208DF8010004E043208DF80100E0
:1013700000E000BF00BF6B208DF80200032168462B
:1013800002F08AFB7FBD000030B502460C4B1824EA
:101390000C4800680C4D28400C4DA84201D10C4B64
:1013A00000BF002108E053F83100904203D103EB65
:1013B000C100406830BD491CA142F4D30020F9E7C8
:1013C0006046000000E00F400000FF7000000A10BF
:1013D00020470000F0B503460C460F4D0C260F4881
:1013E00000680F4F38400F4FB84201D10E4D08260C
:1013F00000210DE055F83100984208D105EBC100FD
:101400004268B4F57F4F00D1521C1046F0BD491C14
:10141000B142EFD30020F9E7484B000000E00F4055
:101420000000FF7000000A10A84B000030B5024613
:101430000C4B08240C4800680C4D28400C4DA84269
:1014400001D10C4B00BF002108E053F8310090425D
:1014500003D103EBC100406830BD491CA142F4D365
:101460000020F9E7E84B000000E00F400000FF70AB
:1014700000000A10284C000003B4019841000098B5
:1014800050EAC12018BF04204A0D18BF40F00100E7
:1014900040F2FF72B2EB515F08BF40F0020001283A
:1014A00008BF052002B0704770B59B482DED020BB8
:1014B0002DED068B079D25F00044A04218DC9748CF
:1014C000844202DC0AD1069840B19DED060BBDECCA
:1014D000068B02B0BDE8704000F015BA002DCCBFFD
:1014E0009FED8F0B9FED900BBDEC068B02B070BD96
:1014F0008F48A04215DD8F48A042D8BF4FF0FF347F
:1015000058DD9DED060B51EC100BFFF7B5FF0428DD
:1015100008BF00F005FA9DED060BBDEC068B02B08E
:1015200070BD9DED060B51EC100B00F0FDFBCDE9FD
:10153000060181489FED828BA0423CDD8248A0429B
:101540001FDD00249FED82AB9DED060B53EC1A2BA3
:1015500051EC100B02F0B8FA9DED060B41EC190BA3
:1015600053EC1A2B51EC100B02F07EFD53EC182BB0
:1015700002F086FF53EC192B02F05AFBCDE906016D
:1015800049E09DED060B012453EC182B51EC100B98
:1015900002F09AFA9DED060B41EC190B53EC182B57
:1015A00051EC100B02F06CFF53EC192B02F040FBD6
:1015B000CDE906012FE06848A0421FDD02249FED1F
:1015C000689B9DED060B53EC192B51EC100B02F0B0
:1015D0004BFD53EC182B02F077FA9DED060B41EC16
:1015E000180B53EC192B51EC100B02F049FF53EC84
:1015F000182B02F01DFBCDE906010CE09DED060B5A
:10160000032453EC102B9FED580B51EC100B02F000
:101610000FFBCDE906019DED060B53EC102B51ECB1
:10162000100B02F021FD41EC180B53EC182B02F0CB
:101630001BFD41EC190B4E480621B0EE490AF0EEB5
:10164000690A784400F0E3F853EC182B51EC100BC6
:1016500002F00AFD41EC180B4648B0EE490AF0EEE4
:10166000690A0521784400F0D2F853EC192B51ECAB
:10167000100B02F0F9FC41EC100B51EC180B53EC81
:10168000102B002C0EDA02F01FFA9DED061B53EC16
:10169000112B02F0E9FC9DED061B53EC112B02F01F
:1016A00017FE35E002F010FA9DED061B53EC112BEE
:1016B00002F0DAFC41EC100B2F48784400EBC40038
:1016C00090ED001B51EC100B53EC112B02F0D8FEE7
:1016D0009DED061B53EC112B02F0D2FE41EC100BDA
:1016E0002648784400EBC40090ED001B51EC100B31
:1016F00053EC112B02F0ECFD41EC100B002DA2BFBE
:10170000BDEC068B02B070BD51EC100B02F0D0F9AD
:1017100041EC100B01E70000000010440000F07FD6
:10172000182D4454FB21F93F182D4454FB21F9BFD7
:101730000000DC3F0000203E0000F33F00000000FE
:10174000000000000000F03F0000E63F0000000045
:101750000000000000000040008003400000000086
:10176000000000000000F83F000000000000F0BF93
:10177000AA36000060360000EA350000A2350000FD
:101780002DED020B019820F0004001909DED000B23
:1017900002B0704700B52DED048BB0EE409AF0EE2C
:1017A000609A83B051EC190B02F09EFD41EC180BCE
:1017B00018EE100A18EE901A8DED008B002818BF55
:1017C0000120084320F00040C0F17F6000F1E040BC
:1017D000C00F14D019EE101A19EE900A8DED009B6F
:1017E000002918BF0121084320F00040C0F17F60AC
:1017F00000F1E040C00F04BF0120FEF751FEB0EE43
:10180000480A03B0F0EE680ABDEC048B00BD70B569
:1018100004462DED028B4D1E00EBC500B0EE408A54
:10182000F0EE608A90ED000B35F0060017D053EC17
:10183000182B51EC100B02F017FC41EC100B6D1E35
:1018400004EBC50090ED001B51EC100B53EC112B79
:1018500002F03AF941EC100B35F00600E7D1022D09
:1018600036D0042D1CD0062D1CBFBDEC028B70BDE4
:1018700053EC182B51EC100B02F0F6FB94ED0A1B05
:1018800053EC112B02F020F953EC182B02F0ECFB77
:1018900094ED081B53EC112B02F016F941EC100BE0
:1018A00053EC182B51EC100B02F0DEFB94ED061BF1
:1018B00053EC112B02F008F953EC182B02F0D4FB77
:1018C00094ED040B53EC102B02F0FEF841EC100BDE
:1018D00053EC182B51EC100B02F0C6FB94ED021BDD
:1018E00053EC112B02F0F0F853EC182B02F0BCFB78
:1018F00094ED001B53EC112B02F0E6F8BDEC028BCB
:1019000041EC100B70BD10B553EC102B51EC100BCB
:1019100002F0DAF841EC100B10BD000000000000EE
:101920009FED050B10B553EC102B51EC100B02F092
:101930009BFB41EC100B10BD0000000000000010EC
:1019400010B51E48FFF77EF900BF1C48FFF7B0F93D
:101950000028FAD01A48FFF775F900BF1848FFF7BA
:10196000A7F90028FAD01748FEF7F4FE1648FEF74C
:10197000F1FE03211548FEF72AFF00211448FFF766
:101980009FFAFFF73DF8044660234FF4E132214609
:101990000F48FFF798FAFEF7F3FF0E490C48FFF7E0
:1019A000D8FA00214F20FEF7F3FF4F20FEF724FF67
:1019B00050210748FFF7C9FA10BD0000071800F0D2
:1019C000040800F00100040001040400004002408B
:1019D000003001401D09000010B52DED048B4FF4BF
:1019E0008071BA48FFF729FAB9480068401CB84925
:1019F000086008460068052874DB00200860B548C8
:101A0000B549086006210120FFF75DFCB348B249E3
:101A1000086006210120FFF756FCB1480168B14873
:101A2000006800F051FAB048006805280AD2DFE8E3
:101A300000F0030A5AA9F9009FEDAC1B9FEDAB0B18
:101A400001F06CFF3DE1AB4890ED000B53EC102B27
:101A5000A94890ED000B51EC100B02F011FD41EC88
:101A6000180BB0EE480AF0EE680AA44801F0CEFB6D
:101A7000A34890ED000B53EC102BA24890ED000B07
:101A800051EC100B02F0FCFC41EC180BB0EE480AD4
:101A9000F0EE680A9C4801F0B9FB984890ED0E1BE7
:101AA000B0EE410AF0EE610A51EC100B02F000F8C2
:101AB00041EC180B944890ED0E1BB0EE410AF0EE8D
:101AC000610A51EC100B01F0F3FF41EC190BB0EE81
:101AD000481AF0EE681AB0EE490AF0EE690A01F011
:101AE0001DFFEEE0EEE0834890ED000B53EC102B71
:101AF000814890ED000B51EC100B02F0C1FC41EC61
:101B0000180BB0EE480AF0EE680A7C4801F07EFB44
:101B10007B4890ED000B53EC102B7A4890ED000BB6
:101B200051EC100B02F0ACFC41EC180BB0EE480A83
:101B3000F0EE680A744801F069FB704890ED0E1BE6
:101B4000B0EE410AF0EE610A51EC100B01F0B0FF6B
:101B500041EC180B6C4890ED0E1BB0EE410AF0EE14
:101B6000610A51EC100B01F0A3FF41EC190BB0EE30
:101B7000481AF0EE681AB0EE490AF0EE690A01F070
:101B8000CDFE9EE05B4890ED000B53EC102B5A48C5
:101B900090ED000B51EC100B02F072FC41EC180BB5
:101BA000B0EE480AF0EE680A544801F02FFB5448A2
:101BB00090ED000B53EC102B524890ED000B51ECC4
:101BC000100B02F05DFC41EC180BB0EE480AF0EE91
:101BD000680A4D4801F01AFB484890ED0E1BB0EE24
:101BE000410AF0EE610A51EC100B01F061FF41EC8B
:101BF000180B454890ED0E1BB0EE410AF0EE610A5D
:101C000051EC100B01F054FF41EC190BB0EE481AE7
:101C1000F0EE681AB0EE490AF0EE690A01F07EFEB5
:101C20004FE0FFE7334890ED000B53EC102B3248A8
:101C300090ED000B51EC100B02F022FC41EC180B64
:101C4000B0EE480AF0EE680A2C4801F0DFFA2C48A2
:101C500090ED000B53EC102B2A4890ED000B51EC4B
:101C6000100B02F00DFC41EC180BB0EE480AF0EE40
:101C7000680A254801F0CAFA204890ED0E1BB0EE24
:101C8000410AF0EE610A51EC100B01F011FF41EC3A
:101C9000180B1D4890ED0E1BB0EE410AF0EE610AE4
:101CA00051EC100B01F004FF41EC190BB0EE481A97
:101CB000F0EE681AB0EE490AF0EE690A01F02EFE65
:101CC00000BF00BFBDEC048B10BD0000001003403E
:101CD000F400002000D0004044010020001001402A
:101CE000400100203C01002008000020000000000E
:101CF00000000000C800002010000020C00A0020E2
:101D0000C000002018000020400B002070B50446E1
:101D1000FEF776FE40F6B831B0FBF1F000FB04F5BB
:101D20002846FEF727FB70BD82B0CDE9000121F007
:101D3000004001909DED000B02B051EC100B70477C
:101D400010B547480068401C454908604548006890
:101D5000401C444908604248006843490968884279
:101D60003BDB00203E4908604048006828B1022261
:101D700011463F48FEF73AFD04E0002202213C48AC
:101D8000FEF734FD3B48006828B1002202213A48A2
:101D9000FEF72CFD21E03948006840B100203749AA
:101DA0000860022211463448FEF720FD15E00120AC
:101DB00032490860002202212F48FEF717FD2B4808
:101DC000006828B12E480068401C2D49086004E0D6
:101DD0002B480068401E2A490860224800682949AB
:101DE000096888423BDB00201E49086026480068DD
:101DF00028B1012211461E48FEF7F8FC04E000223B
:101E000001211B48FEF7F2FC2048006828B100229F
:101E100004211948FEF7EAFC21E01D48006840B1A2
:101E200000201B490860042211461348FEF7DEFC1F
:101E300015E0012016490860002204210E48FEF733
:101E4000D5FC1148006828B112480068401C1149AF
:101E5000086004E00F480068401E0E49086010BD8D
:101E60005C01002060010020540100206C01002072
:101E7000007000407C0100200050024064010020FE
:101E80007401002058010020700100208001002012
:101E9000680100207801002010B508480849086052
:101EA000002201210846FFF7F1F9064804490860BD
:101EB000002201210846FFF7E9F910BD00D00040DB
:101EC000440100200010014070B52DED048B044644
:101ED0000D46194909684942481902F05EF841EC7B
:101EE000190B9FED160B53EC102B01F0A1FE41ECEA
:101EF000180B9FED140B53EC102B02F0B5F8134A9E
:101F000003C213490968081B02F047F841EC190B9A
:101F10009FED0A0B53EC102B01F08AFE41EC180BDD
:101F20009FED080B53EC102B02F09EF8094A03C2F8
:101F3000BDEC048B70BD0000E80000200000000034
:101F400080FFCF400000000000807640C8000020E5
:101F5000EC000020C000002030B52DED108B8DB0BE
:101F600004460D46FE48006800287DD0204602F059
:101F700014F841EC1F0B9FEDFB0B53EC102B02F000
:101F800073F841EC1E0B9FEDF90B53EC102B01F095
:101F90004FFE41EC1D0B9FEDF70B53EC102B02F0A5
:101FA00063F841EC1C0BF54890ED000B53EC102B43
:101FB00051EC1C0B01F088FD41EC1B0B9FEDF00B6D
:101FC00053EC102B02F05CFA41EC1A0BB0EE4A0A0B
:101FD000F0EE6A0AFFF768FAB0EE409AF0EE609A07
:101FE0009FEDE90B53EC102B51EC190B01F020FE87
:101FF00041EC180B9FEDE60B53EC102B02F034F87C
:10200000E54A03C2204601F0C8FF41EC1F0B9FEDDB
:10201000D50B53EC102B02F027F841EC1E0B9FED73
:10202000D30B53EC102B01F003FE41EC1D0B9FED85
:10203000D10B53EC102B02F017F841EC1C0BCF48DE
:1020400090ED000B53EC102B51EC1C0B01F03CFD00
:1020500041EC1B0B9FEDCA0B53EC102B02F010FA56
:1020600041EC190B204600E0ABE001F096FF41EC9B
:102070001F0B9FEDBC0B53EC102B01F0F5FF41EC57
:102080001E0B9FEDBA0B53EC102B01F0D1FD41EC70
:102090001D0B9FEDB80B53EC102B01F0E5FF41EC4D
:1020A0001C0BB64890ED000B53EC102B51EC1C0BA5
:1020B00001F00AFD41EC1B0B9FEDB10B53EC102B13
:1020C00002F0DEF941EC1A0B53EC192B01F0CCFFB6
:1020D0009FEDA40B53EC102BCDE900019DED000BFF
:1020E00051EC100B01F0F0FC41EC180BB0EE480A7B
:1020F000F0EE680AFFF74EFB8DED040B684201F02D
:102100004CFF41EC1D0B9FED970B53EC102B01F096
:10211000ABFF41EC1C0B9FED950B53EC102B01F02A
:1021200087FD41EC1B0B9FED930B53EC102B01F043
:102130009BFF41EC1A0B9FED8F0B53EC102B01F022
:10214000C3FC41EC190B9FED950B53EC102B01F0E8
:10215000BBFC41EC180B934890ED000B53EC102B9B
:1021600051EC180B02F08CF9CDE902019DED040B46
:1021700053EC102B9DED020B51EC100B01F058FDB0
:10218000CDE906019DED060BFFF78EF98DED080BED
:102190009FED7D0B53EC102B9DED080B51EC100BBC
:1021A00001F046FD9FED7A0B53EC102BCDE90A01AF
:1021B0009DED0A0B51EC100B01F056FF7A4A03C259
:1021C00058E1604201F0E9FE41EC1F0B9FED650B09
:1021D00053EC102B01F048FF41EC1E0B9FED630BFD
:1021E00053EC102B01F024FD9FED620B53EC102BF0
:1021F000CDE90A019DED0A0B51EC100B01F034FF03
:1022000041EC1D0B5D4890ED000B53EC102B51EC95
:102210001D0B01F059FC41EC1C0B9FED590B53ECCD
:10222000102B01F051FC41EC1B0BB0EE4B0AF0EE11
:102230006B0AFFF739F9B0EE40AAF0EE60AA51EC54
:102240001A0B01F035FC41EC190B9FED4F0B53ECD1
:10225000102B01F0EDFC41EC180B9FED4D0B53ECF6
:10226000102B01F001FF4C4A03C2604201F095FEC1
:1022700041EC1F0B9FED3B0B53EC102B01F0F4FED8
:1022800041EC1E0B9FED390B53EC102B01F0D0FCF1
:1022900041EC1D0B9FED370B53EC102B01F0E4FECE
:1022A00041EC1C0B354890ED000B53EC102B51EC1E
:1022B0001C0B01F009FC41EC1B0B9FED310B53ECA7
:1022C000102B01F001FCCDE90201604201F065FE36
:1022D00041EC1F0B9FED230B53EC102B01F0C4FEC0
:1022E00041EC1E0B9FED210B53EC102B01F0A0FCD9
:1022F00041EC1D0B9FED1F0B53EC102B01F0B4FEB6
:1023000041EC1C0B1D4890ED000B53EC102B51ECD5
:102310001C0B01F0D9FB41EC1B0B9FED190B53EC8F
:10232000102B01F0D1FBCDE900019DED020B53EC28
:10233000102B9DED000B51EC100B01F095FE41ECC4
:102340001A0B9FED080B53EC102B01F0BDFBCDE9F0
:1023500004019DED040BFFF71DFA8DED080B25E040
:10236000D0000020000000000000F03F000000004E
:1023700000406F40000000000000E03FD800002057
:10238000000000000000D03F4AD8124DFB21094058
:102390000000000000806640B80000209A999999DA
:1023A0009999A93FE0000020B0000020684201F0A8
:1023B000F4FD41EC1F0B1FED150B53EC102B01F03E
:1023C00053FE41EC1E0B1FED170B53EC102B01F0CD
:1023D0002FFC41EC1D0B1FED190B53EC102B01F0E2
:1023E00043FE41EC1C0B1FED1D0B53EC102B01F0B9
:1023F0006BFB41EC1B0B1FED170B53EC102B01F08B
:1024000063FB41EC1A0B1D4890ED000B53EC102BB5
:1024100051EC1A0B02F034F8CDE906019DED080BE2
:1024200053EC102B9DED060B51EC100B01F000FC52
:1024300041EC190BB0EE490AF0EE690AFFF734F8E7
:10244000B0EE408AF0EE608A1FED310B53EC102B9A
:1024500051EC180B01F0ECFB1FED330B53EC102B80
:10246000CDE90A019DED0A0B51EC100B01F0FCFDCA
:10247000034A03C20DB0BDEC108B30BDE00000205C
:10248000B000002010B52DED0C8B0446B0EE408A54
:10249000F0EE608A94ED080B84ED0A0B94ED060BC8
:1024A00084ED080B84ED068B94ED082BB0EE420A08
:1024B000F0EE620A94ED062BB0EE421AF0EE621ACC
:1024C00053EC102B51EC110B01F0DAFF41EC1D0B1A
:1024D00094ED081BB0EE410AF0EE610A53EC102BAC
:1024E00001F0CEFF41EC1C0B94ED0A1BB0EE410A4B
:1024F000F0EE610A53EC102B01F0E6FA41EC1B0BF5
:1025000094ED041BB0EE410AF0EE610A53EC102B7F
:1025100001F0AAFD41EC190B94ED062BB0EE420A36
:10252000F0EE620A94ED022BB0EE421AF0EE621A5F
:1025300053EC102B51EC110B01F096FD41EC1B0BF1
:1025400094ED082BB0EE420AF0EE620A94ED062BF1
:10255000B0EE421AF0EE621A53EC102B51EC110B54
:1025600001F08EFF41EC1D0B94ED001BB0EE410A13
:10257000F0EE610A53EC102B01F076FD41EC1C0BE0
:1025800053EC1B2B01F0A0FA41EC1A0B53EC192B66
:1025900001F09AFAC4E9100194ED1E2BB0EE420A44
:1025A000F0EE620A94ED102BB0EE421AF0EE621AD1
:1025B00053EC102B51EC110B01F01AFD03D894EDE4
:1025C0001E0B84ED100B94ED1C2BB0EE420AF0EEC6
:1025D000620A94ED102BB0EE421AF0EE621A53EC40
:1025E000102B51EC110B01F03DFE03D894ED1C0BA8
:1025F00084ED100B94ED102BB0EE420AF0EE620A5F
:1026000094ED0E2BB0EE421AF0EE621A53EC102B42
:1026100051EC110B01F058FAC4E90E0194ED1A2B9C
:10262000B0EE420AF0EE620A94ED0E2BB0EE421AC2
:10263000F0EE621A53EC102B51EC110B01F0D8FCA8
:1026400003D894ED1A0B84ED0E0B94ED182BB0EE1D
:10265000420AF0EE620A94ED0E2BB0EE421AF0EE52
:10266000621A53EC102B51EC110B01F0FBFD03D857
:1026700094ED180B84ED0E0B94ED0E0BBDEC0C8B52
:1026800010BD000070B52DED048B7348FEF7DAFA2B
:1026900000BF7148FEF70CFB0028FAD06F48FEF728
:1026A000D1FA00BF6D48FEF703FB0028FAD04FF0C7
:1026B0000110FEF74FF86A48FEF74CF8032169480D
:1026C000FEF785F800216848FEF7FAFBFEF798F957
:1026D000044660234FF4E13221466348FEF7F3FBE2
:1026E000FEF74EF961496048FEF733FC00211620E1
:1026F000FEF74EF91620FEF77FF850215A48FEF7F4
:1027000024FC5548001DFEF79DFA00BF5248001DED
:10271000FEF7CEFA0028F9D05048C01CFEF792FA16
:1027200000BF4E48C01CFEF7C3FA0028F9D050483D
:10273000FEF710F84F48FEF70DF830214E48FEF72F
:1027400046F800214D48FEF7BBFBFEF759F9044659
:1027500060234FF4E13221464848FEF7B4FBFEF710
:102760000FF947494548FEF7F4FB00214D20FEF7DD
:102770000FF94D20FEF740F850214048FEF7E5FBE9
:102780003648001DFEF75EFA06213E48FEF710F8B7
:10279000002204213B48FEF729F800220221394893
:1027A000FEF724F82D48801CFEF74CFA032136482A
:1027B000FDF7FEFF002201213348FEF717F8002243
:1027C00002213148FEF712F82448FEF73BFA1021A7
:1027D0002448FDF7EDFF002210212248FEF706F8FD
:1027E0002A48FEF72FFA2A492A48FEF7EFFAFEF7A1
:1027F00007F94FF4FA41B0FBF1F5284601F0E4FB8C
:1028000041EC190B9FED240B53EC102B01F02CFC29
:1028100041EC180B01F094FB044622464FF47F4133
:102820001C48FEF723FBFEF7ABF81D4A4FF47F412F
:102830001848FEF708FB4FF480711648FEF7FFFAC0
:102840002420FDF7D9FF4FF47F411248FEF7EEFA3E
:10285000BDEC048B70BD0000011800F0010800F011
:10286000010401000050004000D000406D0800004D
:102870000110040001140400004002400010014057
:10288000C50800000050024000700040000400F045
:102890000022000400000340000000000000E03FB0
:1028A000810D000010B51448FEF7CCF91349144807
:1028B000FEF78CFAFEF7A4F84FF4FA71B0FBF1F4CE
:1028C00022464FF47F410E48FEF7D0FAFEF758F843
:1028D0000C4A4FF47F410A48FEF7B5FA4FF4807175
:1028E0000748FEF7ACFA2620FDF786FF4FF47F413C
:1028F0000348FEF79BFA10BD010400F0002200041B
:1029000000100340D919000010B501214FF04020FC
:10291000FDF73AFE044621464FF04020FDF71CFE2D
:1029200004F0100010280AD100BF10214FF0402001
:10293000FDF738FF0028F8D001200949086004F0AD
:10294000200020280AD100BF20214FF04020FDF7B1
:1029500029FF0028F8D002200149086010BD0000BE
:102960000800002010B501211B48FDF70DFE0446AC
:1029700021461948FDF7F0FD04F00400042815D1A4
:1029800000BF04211448FDF70DFF0028F9D01348BB
:1029900090ED000B124880ED000B124890ED000BFB
:1029A000114880ED000B03201049086004F0080076
:1029B000082810D100BF08210748FDF7F3FE0028C2
:1029C000F9D00A48006818B901200849086002E0F7
:1029D00000200649086010BD00400240C8000020E9
:1029E00010000020C0000020180000200800002077
:1029F00010B501211148FDF7C7FD044621460F48D7
:102A0000FDF7AAFD04F01000102815D100BF102119
:102A10000A48FDF7C7FE0028F9D0094890ED000BE1
:102A2000084880ED000B084890ED000B074880ED4A
:102A3000000B04200649086010BD00000050024051
:102A4000C800002010000020C00000201800002056
:102A50000800002086B09FEDFD0BFE4880ED000BC6
:102A60009FEDFD0B80ED020B9FEDFB0B80ED040B4A
:102A70009FEDFB0B80ED180B9FEDFB0B80ED1A0B10
:102A80000020F44988649FEDFA0BFB4880ED000BB1
:102A90009FEDF10B80ED020B9FEDEF0B80ED040B32
:102AA0009FEDEF0B80ED180B9FEDEF0B80ED1A0BF8
:102AB0000020F1498864F148FEF726F8F048FEF757
:102AC000C1F8F048FEF7BEF80120FDF743FE40F2E2
:102AD0000140FDF73FFE03214FF04020FDF777FE58
:102AE000FDF78EFF044622464FF4E1310020FEF749
:102AF00045FAE348FEF7A6F8E148401DFEF7A2F8C4
:102B0000DF48001DFEF79EF800BFDD48001DFEF700
:102B1000CFF80028F9D0002230214FF04020FDF7F7
:102B200002FD00220C21D848FDF7FDFC00221021F7
:102B3000D648FDF7F8FC0A23012230214FF040204F
:102B4000FDF75DFD0A2301220C21CF48FDF757FD5B
:102B50000A2301221021CD48FDF751FD002230212A
:102B60004FF04020FDF718FD00220C21C648FDF76C
:102B700013FD00221021C548FDF70EFDC4494FF09A
:102B80004020FDF7F2FCC349BF48FDF7EEFCC24907
:102B9000BE48FDF7EAFC30214FF04020FDF7DFFC96
:102BA0000C21B948FDF7DBFC1021B848FDF7D7FC34
:102BB0001020FDF721FE1420FDF71EFE2E20FDF74C
:102BC0001BFEFDF7DDFE9FEDA41B9FEDA30B00F0A8
:102BD000A5FEFFF757FDFEF7B3FEB048B049086009
:102BE00006210120FEF76FFBAE48AD4908600621C3
:102BF0000120FEF768FB4321AB48FEF751F94FF483
:102C00009670FFF783F8FFF747F94FF49670FFF7D8
:102C10007DF8FFF747FE8CE1A4480068052804D240
:102C2000DFE800F00304156DDA0081E17D2108463C
:102C3000FFF792F99E4890ED000B9E4880ED000B47
:102C40009D4890ED000B9D4880ED000B70E1002148
:102C50000846FFF781F9964890ED000B954880ED06
:102C6000000B954890ED000B944880ED000B4FF45D
:102C70007A70FFF74BF84FF4FA7005211423CDE971
:102C80000131CDE903100A200023FA2219460090F1
:102C9000184600F051F94FF4FA7005211423CDE9DC
:102CA0000131CDE903100A20FA231A4600210090D1
:102CB000184600F041F94FF4FA7005211423CDE9CC
:102CC0000131CDE903100A20FA23002219460090B1
:102CD000184600F031F94FF4FA7005211423CDE9BC
:102CE0000131CDE903100A2000231A46FA21009091
:102CF000184600F021F900206C49086018E14321D2
:102D00006948FEF7CDF84FF49670FEF7FFFF0020FC
:102D10006B49086041216448FEF7C2F84FF4967091
:102D2000FEF7F4FF674A51681068FFF715F960482D
:102D300090ED000B5F4880ED000B5F4890ED000BBD
:102D40005E4880ED000B4FF47A70FEF7DFFF4FF422
:102D5000FA70042102221423CDE90132594C009269
:102D6000CDE90310E368A2686168206800F0E4F828
:102D70004FF4FA70042102221423CDE901320092AB
:102D8000CDE9031063692269E168A06800F0D4F816
:102D90004FF4FA70042102221423CDE9013200928B
:102DA000CDE90310E369A2696169206900F0C4F804
:102DB0004FF4FA70042102221423CDE9013200926B
:102DC000CDE9031063682268E169A06900F0B4F8F6
:102DD000002036490860ABE043213348FEF760F835
:102DE0004FF49670FEF792FF0020354908604121AC
:102DF0002D48FEF755F84FF49670FEF787FF314ADD
:102E000051681068FFF7A8F8294890ED000B294891
:102E100080ED000B284890ED000B284880ED000B5A
:102E20004FF47A70FEF772FF4FF4FA700421022219
:102E30001423CDE90132234C0092CDE903106369DC
:102E400022696168206800F077F83DE0A60A46250F
:102E500075028A3FC00A0020000000000000000048
:102E60009A9999999999B93F9A9999999999B9BFC4
:102E7000E63FA4DFBE0E8C3F400B0020403D8007A4
:102E8000000800F0001800F000400240005002402E
:102E90000929000065290000F129000000D0004048
:102EA00044010020001001400030014008000020D3
:102EB000B800002010000020B00000201800002002
:102EC00034010020CC0B00204FF4FA7004210222C0
:102ED0001423CDE901320092CDE90310E369A26920
:102EE0006169206900F028F84FF4FA700421022289
:102EF0001423CDE901320092CDE90310E368A26802
:102F0000E169A06900F018F84FF4FA700421022278
:102F10001423CDE901320092CDE9031063682268E1
:102F2000E168A06800F008F800200249086000BFCE
:102F300000BF71E6080000202DE9F04F2DED108B49
:102F400085B081460F4615461C46DDF880B04846E0
:102F500001F023F841EC190B1E9801F01EF841EC2A
:102F60001B0BA9EB050149433A1B3B1B02FB03105A
:102F700001F013F841EC1F0BB0EE4F0AF0EE6F0AB0
:102F8000FEF708FCB0EE40DAF0EE60DAA5EB0900DF
:102F900001F003F841EC1E0B53EC1D2B00F048FE32
:102FA00041EC1C0B53EC1B2B01F05EF841EC1A0BAF
:102FB00053EC192B00F088FD41EC180B00F090FF4A
:102FC0008046384600F0E9FF41EC190B1E9800F0EE
:102FD000E4FF41EC1B0BA9EB050149433A1B3B1BEA
:102FE00002FB031000F0D9FF41EC1F0BB0EE4F0ABB
:102FF000F0EE6F0AFEF7CEFBB0EE40DAF0EE60DAEC
:10300000E01B00F0CAFF41EC1E0B53EC1D2B00F03F
:103010000FFE41EC1C0B53EC1B2B01F025F841EC8F
:103020001A0B53EC192B00F04FFD41EC180B00F07C
:1030300057FF0646584600F0B0FF41EC190BA8EBCD
:1030400005014943321B331B02FB031000F0A5FFAF
:1030500041EC1B0BB0EE4B0AF0EE6B0AFEF79AFB4D
:10306000B0EE40AAF0EE60AA53EC192B51EC1A0B0B
:1030700000F0DEFD41EC180B00F032FF02904FF043
:10308000000A94E000BF5A4800680028FBD00BFB00
:103090000AF000F082FF41EC190BA8EB050149434F
:1030A000321B331B02FB031000F077FF41EC1D0BBA
:1030B000B0EE4D0AF0EE6D0AFEF76CFBB0EE40BAD2
:1030C000F0EE60BAA5EB080000F067FF41EC1C0BC6
:1030D00053EC1B2B00F0ACFD41EC1A0B53EC192BFD
:1030E00000F0C2FF41EC180B00F0FAFE40440490DF
:1030F0000BFB0AF000F051FF41EC190BA8EB0501A6
:103100004943321B331B02FB031000F046FF41EC26
:103110001D0BB0EE4D0AF0EE6D0AFEF73BFBB0EE74
:1031200040BAF0EE60BAA01B00F037FF41EC1C0B78
:1031300053EC1B2B00F07CFD41EC1A0B53EC192BCC
:1031400000F092FF41EC180B00F0CAFE30440390EF
:10315000DDE90310FEF700FF00BF254800680028E6
:10316000FBD0244890ED000B234880ED000B234852
:1031700090ED000B224880ED000B204890ED000BF5
:1031800051EC100B00F0ACFE01901A4890ED000BD2
:1031900051EC100B00F0A4FE0090014619A0019A1A
:1031A000FDF724FF1F98FEF7B1FD0AF1010A02980E
:1031B0008245FFF667AF00BF0D4800680028FBD0CE
:1031C00021462846FEF7C8FE0A4890ED000B0A4843
:1031D00080ED000B094890ED000B094880ED000BD5
:1031E0002298FEF793FD05B0BDEC108BBDE8F08F83
:1031F00008000020B800002010000020B0000020CF
:103200001800002025642C25640A000010B52DED5F
:10321000028B0446B0EE408AF0EE608AA06C10B1DA
:10322000012810D107E0B0EE480AF0EE680A204607
:1032300000F0E8F907E0B0EE480AF0EE680A204630
:10324000FFF720F900BF00BF94ED0E0BBDEC028B21
:1032500010BD00007149724A1268885470490968AB
:10326000491C6F4A116011460968052922DB114685
:103270000968491E694A515C6B291BD16849096874
:10328000491F515C012915D165490968091F515C25
:1032900030290FD162490968891E525C604909686A
:1032A000C91E5E4B595C42EA01215E4A1160002151
:1032B0005B4A11605A490968062928DB58490968A0
:1032C000491E564A515C6B2921D155490968891F0D
:1032D000515C01291BD152490968491F515C0A06FA
:1032E0004F490968091F4D4B595C42EA01424C495C
:1032F0000968C91E595C42EA0121494A1268921EB6
:103300009A5C1143474A11600021454A11604449C3
:103310000968132979DB42490968491E3F4A515C13
:103320006B2972D13E4909681339515C01296CD16E
:103330003B4909681239515C212966D1384909682D
:103340001139515C0A06364909681039334B595C0A
:1033500042EA0142324909680F39595C42EA0121C7
:103360002F4A12680E3A9A5C11432F4A11602C4979
:1033700009680D391A46515C0A06294909680C3951
:10338000595C42EA0142264909680B39595C42EA14
:103390000121234A12680A3A9A5C1143224A516079
:1033A0001F49096809391A46515C0A061C4909680F
:1033B0000839595C42EA014219490968C91F595C38
:1033C00042EA0121164A1268921F9A5C1143164A7A
:1033D000916013490968491F1A46515C0A06104951
:1033E0000968091F595C42EA01420D490968C91E72
:1033F000595C42EA01210A4A1268921E9A5C114302
:10340000094AD1600021064A1160054909681E2950
:1034100002DB0021024A1160704700000A0C002004
:103420008801002040010020380C00207149724AB8
:103430001268885470490968491C6F4A1160114626
:103440000968052922DB11460968491E694A515C51
:103450006B291BD168490968491F515C012915D1A5
:1034600065490968091F515C30290FD16249096813
:10347000891E525C60490968C91E5E4B595C42EA6C
:1034800001215E4A116000215B4A11605A490968B6
:10349000062928DB58490968491E564A515C6B29A0
:1034A00021D155490968891F515C01291BD1524915
:1034B0000968491F515C0A064F490968091F4D4BAD
:1034C000595C42EA01424C490968C91E595C42EA0A
:1034D0000121494A1268921E9A5C1143474A1160C1
:1034E0000021454A116044490968132979DB4249A2
:1034F0000968491E3F4A515C6B2972D13E490968EF
:103500001339515C01296CD13B4909681239515C6E
:10351000212966D1384909681139515C0A063649B2
:1035200009681039334B595C42EA01423249096853
:103530000F39595C42EA01212F4A12680E3A9A5C0F
:1035400011432F4A11602C4909680D391A46515C04
:103550000A06294909680C39595C42EA01422649A0
:1035600009680B39595C42EA0121234A12680A3A78
:103570009A5C1143224A51601F49096809391A4669
:10358000515C0A061C4909680839595C42EA014243
:1035900019490968C91F595C42EA0121164A126893
:1035A000921F9A5C1143164A916013490968491F9A
:1035B0001A46515C0A0610490968091F595C42EA1B
:1035C00001420D490968C91E595C42EA01210A4AB3
:1035D0001268921E9A5C1143094AD1600021064A82
:1035E0001160054909681E2902DB0021024A1160A9
:1035F00070470000EC0B0020840100203C010020FB
:10360000280C002010B52DED0A8B0446B0EE408A40
:10361000F0EE608A53EC182B9FED6F0B51EC100B02
:1036200000F0E6FC0DD89FED6E0B53EC102B51EC27
:10363000180B00F0DDFC04D89FED6B0BBDEC0A8B82
:1036400010BD94ED0C1BB0EE410AF0EE610A53EC94
:10365000182B51EC100B00F037FAC4E90C0194ED73
:10366000162BB0EE420AF0EE620A94ED0C2BB0EE8F
:10367000421AF0EE621A53EC102B51EC110B00F0D1
:10368000B7FC03D894ED160B84ED0C0B94ED142BC2
:10369000B0EE420AF0EE620A94ED0C2BB0EE421A44
:1036A000F0EE621A53EC102B51EC110B00F0DAFD26
:1036B00003D894ED140B84ED0C0B94ED080B84ED02
:1036C0000A0B94ED060B84ED080B84ED068B94ED4C
:1036D000082BB0EE420AF0EE620A94ED062BB0EE33
:1036E000421AF0EE621A53EC102B51EC110B00F061
:1036F000C7FE41EC1B0B94ED041BB0EE410AF0EE4B
:10370000610A53EC102B00F0AFFC41EC190B94ED67
:103710000C2BB0EE420AF0EE620A94ED022BB0EEF2
:10372000421AF0EE621A53EC102B51EC110B00F020
:103730009BFC41EC1B0B94ED062BB0EE420AF0EE25
:10374000620A94ED002BB0EE421AF0EE621A53ECCE
:10375000102B51EC110B00F087FC41EC1C0B53ECCF
:103760001B2B00F0B1F941EC1A0B53EC192B00F0B4
:10377000ABF9C4E90E0194ED1A2BB0EE420AF0EE5B
:10378000620A94ED0E2BB0EE421AF0EE621A53EC80
:10379000102B51EC110B00F02BFC03D894ED1A0BFD
:1037A00084ED0E0B94ED182BB0EE420AF0EE620A97
:1037B00094ED0E2BB0EE421AF0EE621A53EC102B81
:1037C00051EC110B00F04EFD03D894ED180B84ED75
:1037D0000E0B94ED0E0B31E7FCA9F1D24D6250BFF8
:1037E000FCA9F1D24D62503F000000000000000033
:1037F00010B53049304A126888542F490968491C6D
:103800002D4A11601146096805294ADB11460968ED
:10381000491E284A515CFF2943D127490968491F9D
:10382000515C264A116024490968091F214A515CEC
:10383000234A116020490968C91E1E4A515C214A69
:1038400011601D490968891E1A4A515C1E4A11609F
:103850000021194A1160194909681A4A1268891A1F
:103860004943174A1268184B1B68D21A144B1B683D
:10387000154C24681B1B02FB0311322905DC13497C
:103880000968491C114A116002E000210F4A1160C9
:103890000E49096840F6B832914202DB00210B4A1A
:1038A000116005490968142902DB0021024A1160F0
:1038B00010BD0000C00B00203801002020010020B6
:1038C00024010020280100202C01002030010020CC
:1038D00010B504460E48006810B1012815D110E05B
:1038E0000C480D49096840F821400B480068401C0D
:1038F0000949086008460068082801DB00200860C4
:1039000003E02046FFF774FF00BF00BF10BD0000BA
:1039100034010020CC0B00201C01002010B52DED3F
:103920000A8BB0EE409AF0EE609AB0EE418AF0EE6B
:10393000618AB0EE480AF0EE680AFDF721FFB0EEAA
:1039400040AAF0EE60AA9FED460B53EC102B51EC11
:103950001A0B00F04DFB03D801204349086032E008
:10396000B0EE480AF0EE680AFDF70AFFB0EE40CA72
:10397000F0EE60CA53EC1C2B9FED3C0B51EC100B8E
:1039800000F056F941EC1B0B9FED3A0B53EC102B5A
:1039900000F04EF941EC1A0B00F0A2FA374908602A
:1039A0000020314908609FED360B53EC102B51EC91
:1039B000180B00F057FC03D201203349086002E0E5
:1039C000002031490860B0EE490AF0EE690AFDF7BF
:1039D000D7FEB0EE40AAF0EE60AA9FED210B53ECAB
:1039E000102B51EC1A0B00F003FB03D801202749E0
:1039F000086032E0B0EE490AF0EE690AFDF7C0FE59
:103A0000B0EE40CAF0EE60CA53EC1C2B9FED170BD2
:103A100051EC100B00F00CF941EC1B0B9FED150B5A
:103A200053EC102B00F004F941EC1A0B00F058FA9B
:103A3000174908600020154908609FED110B53ECF1
:103A4000102B51EC190B00F00DFC03D20020114992
:103A5000086002E001200F490860BDEC0A8B10BD30
:103A60002D431CEBE2361A3F8001002000000000CD
:103A70000040DF40000000000000A9405801002085
:103A80000000000000000000700100207C01002008
:103A9000540100206C01002070B504460D462A46F2
:103AA000214602480068FDF791FA70BD44010020EC
:103AB00081F00041704780F00040704721F00041E4
:103AC000704720F00040704710B591EA030F48BFDF
:103AD00083F0004300F1DC84841A71EB030C05D2FF
:103AE000121943EB0C03001B61EB0C01DFF824E11E
:103AF0004FEA1154A4EB135C1EEA430F18BF9EEA71
:103B0000445F73D023EA0E03DCF1200E21EA045156
:103B100043F4801332D322FA0CFE10EB0E0023FA8A
:103B20000CFE41EB0E01CCF1200E03FA0EFE10EB61
:103B30000E0051F10001B1F5801FCCF1200E32D200
:103B400001EB045112FA0EF2BDE8104058BF704765
:103B5000401C38BF5FEA420218BF7047002814BFFC
:103B600020F0010041F100014FEA410313F5001F6D
:103B700038BF7047A1F1C04100F06EBB012A43EB92
:103B80000302ACF1200CDCF11F0E32BF4FF0000E2F
:103B900023FA0CF310EB030041EB0451B4EB115F7B
:103BA000D0D0A1EB045101F5801149085FEA300043
:103BB00001EB04510ED350F1000038BF12FA0EFE93
:103BC00008D1BDE81040C9E7401C38BF5FEA420297
:103BD000CAD1C3E7BDE810404FEA410313F5001F07
:103BE00038BF7047A1F1C04100F036BB9EEA445F88
:103BF00008D011EA5E0FBDE8104004BF01F000419B
:103C000000207047BDE8104070B500F0D7FA00BF43
:103C100064FBBE3E0000E0FF491058BFC1F14041C7
:103C20005B1058BFC3F140438B42EFF300807047F5
:103C30002DE9C04130B4DFF8A0C23CEA111418BF2E
:103C40003CEA131400F0EC8081EA03051CEA11142D
:103C500044EAD57418BF1CEA131500F0C780A4EB22
:103C600005044FF0004545EAC12145EAC32341EA76
:103C7000505143EA525304F17F74994204F50034E1
:103C80004FEAC0204FEAC22208BF904200F09C8059
:103C90004FEA13650FF24016765D4FEA134506FBB7
:103CA00005F7C7F1807706FB07F74FEAD737A7FB81
:103CB00003687642C8F58038A7FB06CE38BFA8F166
:103CC000010807FB08E64FF0000EA6FB028CE6FB9E
:103CD00003CEDCF1000CCEF1004E38BFAEF1010E88
:103CE000A6FB0C584FF000074FF00005E6FB0E87CF
:103CF000A1FB08C6A0FB07CE16EB0E0645F100059A
:103D0000E1FB076515F1E04E7EBFA4F580345FEA64
:103D100046066D4116F1800745F100054FEA172769
:103D20004FEA066647EA0567A6F1DE46B6F1805F10
:103D30004FEA15251FD9384624F0010C05EBC47154
:103D4000BCF1FE6F01EB0C1102D8F0BCBDE80081A4
:103D500024425CBF01F5801E9EEAC47F02D4F0BC01
:103D6000BDE80081244238D4F0BCA1F1C041BDE8D7
:103D7000004100F071BA4FEAD22242EA43524FEAC0
:103D8000D323A7FB02864FEAD02040EA415007FB2D
:103D900003661EEA0E0F4FEAD12105FB026658BFEB
:103DA000A6EB0056B6EB00564FEA520E4EEAC37E23
:103DB00018EB0E0E56EB530EBDD518EB02085E4104
:103DC0007F1C55F10005B6E74FF480154FF0000752
:103DD0004FF000064FF00008ADE7F0BC4FF00000D8
:103DE00001F1C04101F00041BDE8008111EA0C1F62
:103DF0000CEA131500D00CE013EA0C1F00F025802C
:103E00004FF00000F0BC81EA030101F00041BDE881
:103E10000081F0BCBDE8004181EA030100F01CBA5A
:103E2000F0BCBDE8004170B500F0C8F9097EFC3E69
:103E300000F007B881EA03014FF0000001F00041F3
:103E4000704781EA030100F007BAF0BCBDE8004109
:103E50004FF0000021497047FFFDFBF9F7F5F4F240
:103E6000F0EEEDEBE9E8E6E4E3E1E0DEDDDBDAD815
:103E7000D7D5D4D3D1D0CFCDCCCBCAC8C7C6C5C473
:103E8000C2C1C0BFBEBDBCBBBAB9B8B7B6B5B4B38A
:103E9000B2B1B0AFAEADACABAAA9A8A8A7A6A5A475
:103EA000A3A3A2A1A09F9F9E9D9C9C9B9A99999839
:103EB0009797969595949393929191908F8F8E8EDC
:103EC0008D8C8C8B8B8A8989888887878685858469
:103ED00084838382828181800000FF070000F87F55
:103EE0004FEA41034FEA5353A3F58063D3F11E0316
:103EF000C8BFD3F1210C0CDD4FF0004242EAC122D1
:103F000042EA505232FA03FC8CEAE17CACEBE170FD
:103F10007047102BC4BF0020704703F5787CBCF1BC
:103F2000FF3F04D06FF0004282EA2100704770B575
:103F300000F044F94992248000207047F2E7000025
:103F40004FEA1153A3F58063D3F11E03A8BFD3F149
:103F5000200C08DB4FF0004242EAC12252EA5052E4
:103F600032FA03F0704709420BD4102BC4BF002073
:103F7000704703F5787CBCF1FF3F05D04FF0FF3070
:103F800070474FF00000704770B500F017F900BFA0
:103F90004992248000207047F0E710F0004248BFAB
:103FA0004042B0FA80F310FA03F10AD0C3F11D03C6
:103FB00003F580634FEA415002EB035202EBD1213B
:103FC00070474FF000007047B0FA80F310FA03F129
:103FD0000AD0C3F11D0303F580634FEA41504FEA55
:103FE000035202EBD12170474FF0000070470000F0
:103FF00051EA030C17D41CF5801F58BFBCF5801F75
:1040000000F10680994218BF704708BF9042704780
:1040100007D711F5801F58BF13F5801F19D4994297
:104020007047894270471CF5801F08D5BCF5801F7A
:10403000F7D58B4218BF704708BF824270474FF4D4
:10404000001C1CEB410F38BF1CEB430F01D28B420D
:10405000704770B500F0B2F8922449004FF000515B
:104060004FF08053FFF7D8BDDFF848C170B51CEAA8
:10407000111E1EBF1CEA13159EEA0C0F95EA0C0FC9
:1040800000F06F8081EA030423EA4C134EEAD47EE9
:1040900021EA4C1141F4801143F48013AE44A1FB9A
:1040A000024CA0FB0365AEF17F7E361955EB0C0583
:1040B000A1FB034C4CF10003A0FB021C16EB0C0609
:1040C000654153F10003094218BF46F0010613F49D
:1040D000007F0BD14FEA03314FEA0530340341EA48
:1040E000155140EA16506FF003020AE04FEAC3216F
:1040F0004FEAC520F40241EA555140EA56506FF0AC
:10410000020202EB2E4201EB025585EACE710AD083
:104110005FEA440C18BF24F0004450F1000041F164
:10412000000120EAD47040F2FE7C624500D270BDEE
:10413000A84214BF4FF080444FF04044002E08BF07
:104140000024BEF1806FA8BFA1F1C041BDE870405E
:1041500080F282804FF0000001F1C04101F0004187
:1041600070479EEA0C0F0CEA131518BF95EA0C0F66
:1041700006D04FF0000081EA030E0EF0004170BD42
:1041800000F01CF88900013E00F007B800F009B803
:104190004FEA430C5FEA5C5C08D081EA030100F05F
:1041A0005BB84FEA410C5FEA5C5CF6D14FF000006F
:1041B000014970470000FF070000F87F0EF1020E72
:1041C0002EF0030E5EF8046B364205D4012A43EB51
:1041D000030515F5001F12D8012841EB010C1CF551
:1041E000001F0CD80ED14FEAD17C15F5001F0CEB47
:1041F0004C0C0CF1020C08BF4CEBD37C04E04FF0EC
:10420000080C01E04FEAD37C0CEB4C0526FA05F6CE
:1042100006F00706B6F1040C06D20EEB860CBDE8DC
:1042200070404CF0010C6047DFE80CF0090B020213
:104230004FF000414FF00000A1F5002170BD19467C
:104240001046012851EB010418BFD4F5001484BFB7
:10425000002001F0004170BD0808A0F500114FEAF0
:104260003101704753EA010C17D41CF5801F58BF69
:10427000BCF5801F00F106808B4218BF704708BF55
:104280008242704707D713F5801F58BF11F5801F72
:1042900019D48B4270479B4270471CF5801F08D58C
:1042A000BCF5801FF7D5994218BF704708BF9042F0
:1042B00070474FF4001C1CEB430F38BF1CEB410F41
:1042C00001D2994270470FB40CBC03BCFFF7C1BECA
:1042D00091EA030F10B581F000413FF5FDAB83F08B
:1042E000004300F0D5B800002DE9F04101F5801C35
:1042F000BCF5001FC0F2A9804FEA115C21EA0C5105
:104300000CF1FD0C41F480115FEA5C0C0CF5C07CF3
:1043100001D34000494130A4890241EA905187020B
:104320008E0E0A0CA45D04FB04F602FB06F6C6F131
:104330004046A4FB0662F60D46EA422606FB06F45A
:10434000A4FB01235242C3F1404338BF5B1EA6FBCE
:1043500002420024E6FB0324D20B42EA4446A6FBB9
:104360000623A1FB02E2A3FB07E4E3FB61426442F4
:10437000C2F1404E38BFAEF1010EA6FB04234FF050
:104380000002E6FB0E32A2FB03463400E2FB62644D
:10439000A1FB06E6A4FB07E8E4FB61687642C8F1EE
:1043A000405838BFA8F10108A2FB06E4A3FB08E5CA
:1043B000E2FB6854A1FB05E6A7FB04E8E1FB648689
:1043C00018F1200556F10006A809A8F11B08B1094B
:1043D00008F03F08B8F10A0F40EA86601CD901EBEB
:1043E0000C51BDE8F08100BFFCF5EEE8E2DDD8D36A
:1043F000CFCBC7C3C0BDB9B6B4B1AEACA9A7A5A356
:10440000A19F9D9B9A9896959392908F8D8C8B8966
:104410008887868584838281A0FB006800FB01F287
:1044200008EB4208B8EB872807D5341858EB01048D
:10443000D5D5401C51F10001D1E7341A78EB0104C5
:10444000CDD4401E71F10001C9E75FEA4C0C5FEA70
:104450009C5C0DD105D34FF0000001F00041BDE898
:10446000F081BDE8F04170B5FFF7A8FE6DDBFFBE3F
:10447000BDE8F0414FF00000004970470000F87FB0
:1044800010B591EA030F48BF83F000433FF524AB1A
:10449000841A71EB030C07D212198CF0004C43EB19
:1044A0000C03001B61EB0C01DFF8A4E14FEA11548F
:1044B000A4EB135C1EEA430F18BF9EEA445F00F0B2
:1044C000B08023EA6E03524221EA0451C3EB6E032B
:1044D00038BF5B1EDCF1200E25D322FA0CFE10EB58
:1044E0000E0043FA0CFE41EB0E01CCF1200E03FA54
:1044F0000EFE10EB0E0051F10001CCF1200E29D47C
:1045000012FA0EF201EB0451BDE8104058BF70479B
:10451000401C1CBFB2F1004F704700280CBF491C63
:1045200020F00100704712EB020E43EB030218BFAC
:104530004FF0010E4EEA4202ACF1200CDCF11E0EEF
:1045400054D943FA0CFE10EB0E0051F1FF31CCF1BF
:104550001E0ED5D50EF1010E12FA0EFE404141EBB2
:10456000010101EB445C5FEA5C5C10D910EBDE708A
:1045700001EB045138BFBEF1004FBDE8104018BF39
:10458000704700280CBF491C20F00100704730D252
:104590004FEAD42C11F5001124F400641BD0B1FAB9
:1045A00081F20B3AA41AA41ED2F12003914030FAF2
:1045B00003F31943904001EBCC71002C01EB045143
:1045C000BDE81040A8BF704701F1C0414FF00000A6
:1045D00001F000417047B0FA80F310FA03F100D106
:1045E00010BDE41A173C4805C90AE4E701EB045181
:1045F00010BD491001EB0451BDE810404FEA3000F6
:1046000002E04FF0000170474A0008BF0042F8D0B6
:10461000B2F5001F28BF704701F000414FF00000C5
:1046200070479EEA445F07D011EA5E0FBDE8104074
:1046300004BF002100207047BDE8104070B5FFF7AF
:10464000BDFD00BF40DFF63E83F0004110467047DD
:104650000000E0FF4FF04070E1EE100A70470000EC
:1046600000400040100000000080054010000000E5
:1046700000500040110000000090054011000000B3
:10468000006000401200000000A005401200000081
:10469000007000401300000000B00540130000004F
:1046A000004002401400000000C00540140000005B
:1046B000005002402E00000000D005402E000000F7
:1046C000006002402F00000000E005402F000000C5
:1046D000007002403000000000F005403000000093
:1046E00000D00340460000000000064046000000E5
:1046F000001006404700000000200640480000006F
:10470000003006407F0000000040064080000000AE
:104710000050064084000000006006408C0000004D
:104720000040004010000000008005401000000024
:1047300000500040110000000090054011000000F2
:10474000006000401200000000A0054012000000C0
:10475000007000401300000000B00540130000008E
:10476000004002401400000000C00540140000009A
:10477000005002402E00000000D005402E00000036
:10478000006002402F00000000E005402F00000004
:10479000007002403000000000F0054030000000D2
:1047A00000D003404300000000000640430000002A
:1047B00000100640440000000020064045000000B4
:1047C000003006405800000000400640590000003C
:1047D000005006405C0000000060064064000000DD
:1047E000004000400080054000500040009005401F
:1047F0000060004000A005400070004000B005408F
:104800000040024000C005400050024000D005407A
:104810000060024000E005400070024000F00540EA
:1048200000D0034000000640001006400010064083
:1048300000200640002006400030064000300640C0
:104840000040064000400640005006400050064030
:1048500000600640006006400070064000700640A0
:104860000080064000800640009006400090064010
:104870000007000000060000000500000004000022
:104880000003000000020000000100000000000022
:104890000000000018ED00E01CED00E020ED00E05D
:1048A00000E400E004E400E008E400E00CE400E0E0
:1048B00010E400E014E400E018E400E01CE400E090
:1048C00020E400E024E400E028E400E02CE400E040
:1048D00030E400E034E400E038E400E03CE400E0F0
:1048E00040E400E044E400E048E400E04CE400E0A0
:1048F00050E400E054E400E058E400E05CE400E050
:1049000060E400E064E400E068E400E06CE400E0FF
:1049100070E400E074E400E078E400E07CE400E0AF
:1049200080E400E084E400E088E400E000E100E0EE
:1049300004E100E008E100E00CE100E010E100E04B
:1049400080E100E084E100E088E100E08CE100E04B
:1049500090E100E000E200E004E200E008E200E0B4
:104960000CE200E010E200E080E200E084E200E01F
:1049700088E200E08CE200E090E200E040420F00BC
:1049800000201C0080841E0000802500999E3600B7
:104990000040380000093D0000803E0000004B0050
:1049A000404B4C0000204E00808D5B0000C05D003D
:1049B0000080700000127A0000007D008096980050
:1049C000001BB7000080BB00C0E8CE00647ADA00AC
:1049D0000024F4000000FA0080A81201002D31012B
:1049E00000366E0140787D014000000000000000AC
:1049F0003E00080000000000A000000002000000CF
:104A000034540100000000002B700600000000007C
:104A10002800000000000000270001000000000046
:104A20002000000000000000500000000200000014
:104A30001AAC0000000000001794090000000000FC
:104A4000169805000000000014000000000000009F
:104A50001380080000000000A00000000800000013
:104A6000100000000000000028000000020000000C
:104A70004000000004000000600000000000000092
:104A80005D000C000000000050000000000000006D
:104A90004E0002000000000041AC010000000000D8
:104AA0003C000000000000003A8009000000000007
:104AB000300000000000000028000000000000009E
:104AC0002700010000000000236006000000000035
:104AD00021600800000000001E000000000000002F
:104AE0001DC0040000000000500000000200000093
:104AF000180000000000000014000000000000008A
:104B000060000000040000000024F40030003000C9
:104B100080C3C9017100710080F0FA02B200B200D6
:104B200000879303D300D30000B4C404140114011C
:104B300000E1F50555015501000E27079601960184
:104B400000D0121300389C1C00000340230000001A
:104B50000010034025000000002003402700000053
:104B600000300340330000000040034056000000C6
:104B7000005003406C000000006003406E00000025
:104B8000007003407000000000C00440720000008C
:104B900000D004407400000000E0044076000000F3
:104BA00000F00440780000000000034023000000F3
:104BB00000100340250000000020034027000000F3
:104BC0000030034033000000004003404F0000006D
:104BD000005003405100000000000E407200000031
:104BE00000100E407400000000C0004015000000DE
:104BF00000D000401600000000E00040310000003E
:104C000000F000404B000000000001404C0000009C
:104C1000001001404D000000002001404E00000047
:104C2000003001404F00000000C0004015000000AF
:104C300000D000401600000000E0004031000000FD
:104C400000F0004048000000000001404900000062
:104C5000001001404A000000002001404B0000000D
:104C6000003001404C000000204D000000C000401A
:104C700000D0004000E00040001800F0011800F0F3
:104C8000021800F0000000004FBB610567ACDD3F7B
:104C9000182D4454FB21E93F9BF681D20B73EF3F63
:104CA000182D4454FB21F93FE2652F227F2B7A3CDB
:104CB000075C143326A6813CBDCBF07A8807703C94
:104CC000075C143326A6913CC4EB98999999C9BF07
:104CD000711623FEC671BCBF6D9A74AFF2B0B3BF3C
:104CE0009AFDDE522DDEADBF2F6C6A2C44B4A2BFFC
:104CF0000D5555555555D53FFF8300922449C23F68
:104D00006E204CC5CD45B73F513DD0A0660DB13F9B
:104D1000EB0D76244B7BA93F11DA22E33AAD903FAD
:104D20003031323334353637383961626364656621
:104D300000000000544D0000000000206C06000040
:104D4000A8020000C84D00006C0600203C080000CE
:104D50000403000001151E4069409A99014B595DFA
:104D60000854C968404B805C082D906A4033015A52
:104D700053104B506C28CB795C301ED05F40CDCCAB
:104D8000017B8C6A10693039184BCC5F485AC330AC
:104D90004BA061402D896A4066014BA661087B46A5
:104DA0006C200120F201200B17D9CEF753E3C53F49
:104DB000CB250357DE1712D0091F9801FF01FF0111
:084DC000FF01FF01FF9100005B
:040000050000026D88
:00000001FF
